:020000040800F2
:10000000B82400209D010008732B00084529000832
:10001000712B0008190300087D4D00080000000046
:10002000000000000000000000000000BD2D0008DE
:100030009105000800000000EF2C00080F2E0008BA
:10004000B7010008B7010008B7010008B7010008B0
:10005000B7010008B7010008B7010008B7010008A0
:10006000B7010008B7010008B7010008B701000890
:10007000B7010008B7010008B7010008B701000880
:10008000B7010008B7010008B7010008B701000870
:10009000B7010008B7010008B7010008B701000860
:1000A000B7010008B7010008B7010008B701000850
:1000B000B7010008B7010008B7010008B701000840
:1000C000B7010008B7010008B7010008B701000830
:1000D000B70100082D320008B7010008B701000879
:1000E000B7010008B7010008B7010008B701000810
:1000F000B7010008B12E0008B7010008B7010008D9
:10010000B7010008B7010008B7010008B7010008EF
:10011000B7010008B7010008B7010008B7010008DF
:10012000B7010008B7010008B7010008B7010008CF
:10013000B7010008B7010008B7010008B7010008BF
:10014000B7010008B7010008B7010008752B0008C7
:10015000B7010008B7010008B7010008B70100089F
:10016000B7010008B7010008B7010008B70100088F
:10017000B7010008B7010008B7010008000000003F
:10018000B7010008B7010008DFF80CD000F07AF8DA
:100190000048004755520008B82400200648804710
:1001A00006480047FEE7FEE7FEE7FEE7FEE7FEE75C
:1001B000FEE7FEE7FEE7FEE7A12E00088901000842
:1001C0002DE9F05F0546002092469B46884606468C
:1001D000814640241BE0284641464746224600F01F
:1001E00041F853465A46C01A914110D31146184659
:1001F000224600F028F82D1A67EB01084F462246E8
:100200000120002100F01FF817EB00094E41201ECD
:10021000A4F10104DFDC484631462A464346BDE8E6
:10022000F09FD2B201E000F8012B491EFBD27047CB
:100230000022F6E710B513460A4604461946FFF7B2
:10024000F0FF204610BD202A04DB203A00FA02F11C
:10025000002070479140C2F1200320FA03F31943B4
:1002600090407047202A04DB203A21FA02F0002156
:10027000704721FA02F3D040C2F1200291400843B6
:1002800019467047064C074D06E0E06840F0010350
:1002900094E8070098471034AC42F6D3FFF778FF94
:1002A0003C5500085C55000870B58C1810F8015BCF
:1002B00015F0070301D110F8013B2A1106D110F8FF
:1002C000012B03E010F8016B01F8016B5B1EF9D103
:1002D0002B0705D40023521E0DD401F8013BFAE789
:1002E00010F8013BCB1A921C03E013F8015B01F8F4
:1002F000015B521EF9D5A142D8D3002070BD000089
:100300004FF4FA74034800F0AAFE204600F0BEFC49
:10031000F8E70000E4130020FEE70020704700200B
:100320007047000010B500220449054803F06AF93F
:100330000449034803F059F9002010BDE40B0020E4
:10034000D8140020E40300202DE9F041334C344F51
:100350000E46054620783978DFF8C880884220D1DB
:10036000314802F028F83149A8784A79824201D10F
:10037000787808E08A79824201D1B87803E0C979B7
:10038000814201D1F87820702078F978884208D12C
:100390002748696801602748A968016098F8030048
:1003A0006070607898F80210474688422BD122A0EE
:1003B000316805F063F82148006810B91A4801F067
:1003C000A7FF1F49002008801E491F4B0A8807E02D
:1003D00002EB000815F800C003F808C0401C80B20A
:1003E000D6F800C08445F3D83088104480B2088025
:1003F0001649B0F5007F02D30120087001E00878AB
:1004000008B1387960702946114803F0EEF81048B9
:1004100003F0C4F80020BDE8F0810000580000207F
:100420004C00002050000020481400204000002014
:100430000C000020300000204C656E0020000020E1
:100440002E0000202800002080010020260000202F
:10045000D814002000207047094A10B5D2F8BC22F9
:10046000D2F814220AB1012010BD0A460146044800
:1004700003F0C8F8BDE81040014803F03DB90000A2
:10048000D814002070B54FF0FF320023094D0CE066
:10049000C45C62400024D60702D085EA520200E024
:1004A0005208641C082CF6D35B1C8B42F0D3D0435B
:1004B00070BD00002083B8ED2DE9F8432C482D498C
:1004C0002A4F0546894600F047FA2B4EDFF8AC80EC
:1004D00038B1D8F8080031780022007802F074FCB6
:1004E00012E000F079FC00243A5929190023022077
:1004F00000F034FC58B1D8F8080031780022407878
:1005000002F062FC00F020FC0120BDE8F883241D0D
:100510004C45E9D300F018FC49463846FFF7B2FFD6
:10052000044649462846FFF7ADFF0546014614A09C
:1005300004F0A4FF214614A004F0A0FFAC4213D0A5
:100540008DF80040200A8DF80100200C8DF8020083
:10055000200E8DF80300D8F8080031786A4600793B
:1005600002F032FCFFF7CCFE0020CEE7008000084E
:1005700000000408FF7F030050000020400000201E
:100580006372635F610000006372635F620000007A
:10059000704700002DE9F05F044687B25748078096
:1005A000574801682144016000F016FC554EDFF801
:1005B00058B1DFF858913078DFF854814FF0000AD5
:1005C000012801D0002576E0B4B3524801785248A2
:1005D000534D0023007840EA0122504829684068C2
:1005E0000144012000F0BAFB88BB28460168891C41
:1005F000012501601EE049484168494800680144FE
:10060000681CA04243480ED2425D28444078002333
:1006100042EA0022012000F0A1FBC0B9404908686D
:10062000801C086004E0415D3B480170012030708F
:10063000AD1CADB2A542DED3E00709D0601CA9F81D
:100640000000D8F8001040462144491C52E019E04F
:10065000A9F80070D8F800104046214437E02F4830
:1006600041682F4800680144681CA04229481BD2F9
:10067000425D28444078002342EA0022012000F035
:100680006DFB60B127489BF800100022806840781D
:1006900002F09AFB00F058FB0120BDE8F09F2048D3
:1006A0000168891C016004E0415D1B480170012064
:1006B0003070AD1CADB2A542D1D3E00714D0601E9E
:1006C000A9F80000D8F8001040462144491E0160F6
:1006D0000120307000F038FB1349002081F800A0A1
:1006E0001249A1F800A0D8E7A9F80070D8F80010C6
:1006F00040462144016086F800A0EBE7100000208E
:1007000014000020240000205000002018000020C9
:100710001C00002080010020250000200000002097
:10072000200000204000002026000020280000209B
:1007300070470000002229B101291AD002291BD0DC
:100740004FF440720E490B6823F440730B600B6842
:1007500013430B600A6822F078020A600A680223D9
:1007600003EBC00002430A60086840F48030086070
:1007700070474FF48072E5E74FF40072E2E7000043
:10078000103C02401348016889050FD5016821F427
:1007900000710160016841F400610160016821F4A9
:1007A00000610160016841F4007101600168490560
:1007B0000FD5016821F480610160016841F4805126
:1007C0000160016821F480510160016841F4806199
:1007D00001607047003C024008490A6822F44072F8
:1007E0000A600A6842F004020A600A684FF4803323
:1007F00043EA002002430A6070470000103C0240B8
:10080000064A136823F44073136013681360136877
:1008100043F001031360017070470000103C024078
:10082000094910B50C6824F440740C600C6844F459
:1008300040740C600C6844F001040C600260BFF36B
:100840006F8F436010BD0000103C0240074A1368E0
:1008500023F440731360136843F4807313601368C8
:1008600043F001031360018070470000103C024018
:10087000074A136823F440731360136843F400734A
:100880001360136843F001031360016070470000B8
:10089000103C024017490868C206174805D5C269CE
:1008A00042F01002C26110220A600A68920605D561
:1008B000C26942F00802C26120220A600A68520638
:1008C00005D5C26942F00402C26140220A600A688A
:1008D000120605D5C26942F00202C26180220A6096
:1008E0000A68920705D5C26942F02002C26102205F
:1008F000086070470C3C0240C000002070B51149F0
:1009000004460020C86100F075FB06460E4D09E064
:10091000601C07D024B100F06DFB801BA04201D900
:10092000032070BD2868C003F2D42868C00701D036
:1009300001202860286810F0F200F2D0FFF7AAFF2B
:10094000012070BDC00000200C3C0240014800F0B6
:1009500086BB0000E41300202DE9F05F0E4605463B
:1009600000F03AFA8EB15B48DFF868B12844CBF169
:10097000000BB0F5802F19D25846002150F82120E5
:10098000521C05D000F0B6F805E00020BDE8F09F4D
:10099000491C4029F2DB50485FF0000150F821204B
:1009A000521C3BD1491C4029F8DB90E04B48DFF852
:1009B0002C812844DFF82891DFF828A1C8F100082D
:1009C000B0F5603F31D240465FF0000150F8212081
:1009D000521C02D000F08EF802E0491C4029F5DBE1
:1009E0004846002150F82120521C02D000F082F825
:1009F00002E0491C4029F5DB5046002150F8212037
:100A0000521C02D000F076F802E0491C4029F5DBC8
:100A10003548002150F82120521C02D000F06AF81D
:100A200055E0491C4029F5DB51E0284600F092F8DA
:100A30000446A819401E00F08DF80646B44246D878
:100A40008CB32A4D4FF00067BC420FD0AC420DD0A2
:100A500044450BD04C4509D0544507D02248844228
:100A600004D05C4502D01C48844210D140210020B3
:100A700054F82020521C03D0204600F03BF802E03E
:100A8000401C8842F4D3BC4201D12C461DE0AC424C
:100A900001D1444619E0444501D14C4615E04C458E
:100AA00002D1544611E012E0544501D10E4C0CE045
:100AB0000D48844201D15C4607E05C4501D1064CFB
:100AC00003E00548844202D1094CA642BCD200F0A2
:100AD0003BF95AE70000FCF7000006080080FFF72A
:100AE00000C00008000001080000020800400008E3
:100AF0000000080830B587B00025144A294605953E
:100B000052F8213083421BD11048403010F8214068
:100B1000FF2C18D000F060F90D49F3200860022086
:100B200004900120CDE90240CDE9005005A96846B6
:100B300000F0BEF8044600F007F9204607B030BDCB
:100B4000491C0829DCDB0120F8E70000C454000838
:100B50000C3C024030B5A0F10061B1F5002F11D27C
:100B6000094C002104F1200554F8212055F82130CA
:100B70009042134403D3984201D2104630BD491C21
:100B80000829F1DB002030BDC45400082DE9F041F4
:100B90000446876D00F02EFA064694F835000025CD
:100BA000022806D08020606584F834500120BDE81A
:100BB000F0812068016821F0160101602068416918
:100BC00021F080014161206C08B9A06C20B120683F
:100BD000016821F0080101602068016821F001012D
:100BE00001600CE000F006FA801B052807D92020E0
:100BF0006065032084F8350084F83450D7E7206816
:100C00000068C007EED194F85C103F208840B860BF
:100C1000012084F8350084F834500020C7E790F8AC
:100C20003510022903D0802141650120704705213C
:100C300080F835100068016821F001010160002092
:100C4000704700000E4910B50C480860002008608D
:100C5000091D0C4A0A60086009490B4A10390A60EC
:100C60000860C122091D0A6008600122091D0A608E
:100C7000086000F03DFA002010BD0000FFC9FEF63C
:100C80002038024033797704FF11602270B50446A2
:100C900000F0B0F90546601C02D004480078044416
:100CA00000F0A8F9401BA042FAD370BDE00000207C
:100CB0002DE9F047044622480F46017E01290AD05B
:100CC0000121804601764CF250394846FFF716FE66
:100CD000020003D02FE00220BDE8F0874FF0FF3084
:100CE00038602068174D012801D0A6681CE0207CE0
:100CF0006168FFF771FD4846FFF700FE024628686D
:100D000020F00400286014E0217C3046FFF712FD3B
:100D10004846FFF7F3FD0200286820F07A002860BB
:100D200001D03E6005E0761CD4E902100844B042D0
:100D3000EAD8FFF727FD002188F818101046CBE706
:100D4000C0000020103C02400348016841F000410F
:100D50000160002070470000103C02402DE9F04780
:100D60001B4E05461446307E1F468946012808D092
:100D7000012030764CF250384046FFF7BFFD18B1E5
:100D800014E00220BDE8F0879DB1012D16D0022DA0
:100D900019D022463B464846FFF742FD4046FFF742
:100DA000ADFD0C490A6822F001020A60002131768B
:100DB000E8E7E1B24846FFF723FDEFE7A1B2484676
:100DC000FFF744FDEAE721464846FFF751FDE5E716
:100DD000C0000020103C0240074900200A68002A99
:100DE00009DA054A054B0C3A1360054B1360096894
:100DF000002900DA01207047103C024023016745BA
:100E0000AB89EFCD2DE9F84FDFF8BCA10022012519
:100E100003264FF00F090AF1040BAAF1040E00BFDC
:100E20000B6805FA02F42340A34270D10F7907F052
:100E30000307012F01D0022F16D187684FEA42081D
:100E400006FA08FC27EA0C07D1F80CC00CFA08FCDB
:100E50004CEA070CC0F808C04768A7430C79C4F3F4
:100E6000001494403C4344600C79E443A4070AD046
:100E7000C4684FEA420C06FA0CF7BC438F6807FAC5
:100E80000CF72743C7600C7904F00304022C12D13D
:100E9000D40800EB840CDCF820405707FF0E09FA59
:100EA00007F824EA0804D1F8108008FA07F848EA9D
:100EB0000408CCF8208004684FEA420C06FA0CF7CC
:100EC000BC430F7907F0030707FA0CF727430760C5
:100ED0004C6814F4403F70D03C4C276847F480477E
:100EE0002760246822F0030704F480440094384CFF
:100EF00007EB040CDCF8084897074FEA177809FA63
:100F000008F7BC43334FB84202D1002724E054E035
:100F1000314FB84201D101271EE0304FB84201D114
:100F2000022719E02E4FB84201D1032714E02D4FBC
:100F3000B84201D104270FE02B4FB84201D1052759
:100F40000AE02A4FB84201D1062705E0284FB842EF
:100F500001D1072700E0082707FA08F72743CCF854
:100F60000878DAF800405746D1F804C09C435FEA9D
:100F7000CC2C00D51C433C60DBF800405F46D1F828
:100F800004C09C435FEA8C2C00D51C433C60DEF817
:100F900000407746D1F804C09C435FEA8C3C00D502
:100FA0001C433C60084F083F3C68D1F804C09C4398
:100FB0005FEACC3C00D51C433C60521C102AFFF475
:100FC0002FAFBDE8F88F0000083C014044380240D4
:100FD00000300140000002400004024000080240CE
:100FE000000C0240001002400014024000180240B1
:100FF000001C02400148806870470000E0000020AB
:1010000070B5040013D021684CF6CC40086021680C
:1010100045F255500860D4E9000141602168A0689C
:101020008860FFF7E7FF054641F601060DE0012065
:1010300070BD00BFFFF7DEFF401BB04205D920683E
:10104000C068800701D0032070BD2068C068800799
:10105000F0D121684AF6AA200860002070BD00681F
:101060004AF6AA210160002070470000024881680A
:101070000278114481607047E00000200B4810B5F1
:10108000016841F400710160016841F48061016010
:10109000016841F480710160032000F071F80F20B5
:1010A00000F006F800F026F8002010BD003C0240D9
:1010B00070B50D4D04464FF47A712878B1FBF0F00D
:1010C0000A490968B1FBF0F001F0C0F848B9102CEA
:1010D00007D200222146501E00F032F800206C603A
:1010E00070BD012070BD0000E0000020EC00002079
:1010F000704700000A4808B5016841F4804101606A
:10110000006800F4804000900548001F016841F02D
:1011100080510160006800F08050009008BD000020
:1011200044380240002809DB00F01F0201219140F1
:101130004009800000F1E020C0F800117047000075
:10114000F0B40E4B1B680C46C3F30223C3F1070532
:10115000042D00D90425191D072901D2002300E020
:10116000DB1E012606FA05F1491E214099409E40EA
:10117000761E16403143F0BC03F016BE0CED00E0C5
:10118000064900F0070208684FF6FF03184040EADE
:101190000220034A10430860704700000CED00E095
:1011A0000000FA0570470068416200207047F0B502
:1011B0000368586A39B19C6A4FF4827600EB144494
:1011C00000204D1E0AE040EA024098620FE006EB64
:1011D0008007DF59401C04EB1744C0B2A842F6D385
:1011E00044EA02404FF4807202EB81015850002023
:1011F000F0BDD0F8E00402F018BD01EBC10200EB35
:101200008202D0F8E004126A02F069BC01EBC1026C
:1012100000EB8202D0F8E004D2F8602202F0BBBCFE
:10122000D0F8E00402F003BD0A0601F00F0101EB63
:10123000C10100EB810101D5143101E001F5157107
:10124000006803F0E9BB70B504460B0601F00F001F
:1012500000EBC00104EB81014FF001024FF00005EB
:1012600002D54A75143103E081F8555201F5157124
:10127000087094F89404012808D084F89424206815
:1012800003F0E4F884F89454002070BD022070BD8F
:1012900070B5044601F00F002279904201D9012077
:1012A00070BD0B0601F00F0101EBC10104EB8101E0
:1012B0004FF001024FF0000502D54A75143103E0EA
:1012C00081F8555201F515718D70087094F89404E9
:1012D000012808D084F89424206803F029FA84F8BF
:1012E0009454002070BD022070BD01F00F0101EB8D
:1012F000C10100EB8100D0F8680270472DE9F04190
:1013000004460F0601F00F0000EBC00104EB810161
:101310004FF001064FF0000502D54E75143103E081
:1013200081F8555201F51571C2F30A0208708A60FE
:101330000B714A7802B14883022B00D14D7194F8A9
:101340009404012809D084F89464206802F0CCFF4A
:10135000284684F89454BDE8F0810220FBE710B5DC
:1013600001F00F0404EBC40100EB8101C1E99823F3
:101370000023C1F8683281F8553281F854428379EC
:1013800001F51571012B00D1CA618279006803F063
:1013900027FA002010BD70B504460D4601F00F007D
:1013A0002179884201D9012070BD29064FF000063D
:1013B0004FF0010206D500EBC00104EB81014A7534
:1013C000143107E005EBC50104EB810181F855629A
:1013D00001F515718A70087094F89404012807D0FB
:1013E00084F89424206803F0CFF9280702D007E09E
:1013F000022070BDA17904F29C42206803F06CF9D0
:1014000084F89464002070BD10B501F00F0404EB63
:10141000C40100EB8101C1E9082300238B62012391
:101420004B7501F8144F8379012B00D1CA61827981
:10143000006803F0D5F9002010BD00002DE9FC5F25
:1014400005680446284603F083FB00287DD1206808
:1014500003F0AAFB002878D0D5F80808C0F30D20C7
:10146000C4F8D404206803F09FFB800704D52068EB
:10147000416901F002014161206803F095FBC1065A
:1014800004F29C40009034D52068816921F010015D
:1014900081612F6A07F00F0000EBC00004EB8006AB
:1014A000C7F3434006F51576022802D0062811D06E
:1014B0001AE047F6F070074216D0C7F30A12174633
:1014C0002846F16803F074FBF0683844F0607069F6
:1014D000384408E008222846009903F069FB706947
:1014E000C7F30A11084470612068816941F0100156
:1014F0008161206803F058FB00034FF0080B4FF0A8
:10150000000A4FF001097CD50026206803F02BFB70
:10151000074674E0F80770D0F1B2206803F03CFB96
:101520008046C00707D005EB4611C1F8089B31463D
:10153000204601F025FB5FEA087024D505EB461133
:10154000C1F808BB2068016C00E023E200EB461004
:101550000191D0F8082BFB4B994205D9110403D512
:101560004FF40041C0F8081B204600F0F6FAF54998
:101570000198884207D9A079012804D12068012167
:10158000009A03F0A9F85FEAC86004D505EB46119C
:101590001020C1F8080B5FEA88701DD56869000645
:1015A00005D5D5F8040840F48061C5F8041806EBA9
:1015B000C60004EB800090F8571200F51570012961
:1015C00005D180F803A0F1B2204600F0E9F905EB5F
:1015D00046110220C1F8080B5FEA886004D505EBCC
:1015E00046102021C0F8081B5FEA884005D505EBAE
:1015F00046104FF40051C0F8081B7F08761C002FDE
:1016000088D1206803F0D0FA40036ED5206803F03B
:10161000A3FA0746002666E0F80762D0F1B2206818
:1016200003F0A8FA8046C00723D006F00F01D5F8D2
:10163000342809FA01F18A43C5F8342805EB46112C
:10164000C1F80899A07901280FD106EBC60004EB78
:101650008000D0E907211144016236B9606A20B9DF
:1016600020680121009A03F037F8F1B22046FFF715
:10167000C4FD5FEA087003D505EB4611C1F808B94F
:101680005FEAC86004D505EB46111020C1F80809CF
:101690005FEA486004D505EB46104021C0F8081900
:1016A0005FEA887016D53146284603F026FA06EB25
:1016B000C60004EB8000C17D1430012905D180F8FB
:1016C00003A0F1B2204600F067F905EB46110220B5
:1016D000C1F808095FEA086003D53146204601F0E9
:1016E000B5FA7F08761C002F96D1206803F05CFACB
:1016F000002811DAD5F8040820F00101C5F8041813
:1017000094F8CC0401282BD0204600F00BFA206876
:10171000416901F000414161206803F045FA00058C
:101720000BD5D5F80808C00702D0204600F03EFAD5
:101730002068416901F400614161206803F034FAD6
:10174000C00467D5D5F8040820F00100C5F80408E6
:101750001021206803F0D1F900214FF67F3220E0FC
:1017600084F8CCA400212046FFF71CFDCFE700BF82
:1017700005EB4110C0F80829D0F8003923F4001314
:10178000C0F80039C0F8082BD0F8003B23F4001350
:10179000C0F8003BD0F8003B43F00063C0F8003BCA
:1017A000491C20798842E3D8D5F81C0840F0011183
:1017B000C5F81C18E07B002828460DD0D0F8840816
:1017C00040F00B01C5F88418D5F8440840F00B012F
:1017D0002846C5F844180DE0D0F8140842F22B0151
:1017E0000843C5F81408D5F8100840F00B01284646
:1017F000C5F81018D0F8000820F4FE61C5F80018EC
:10180000A1792068009A02F067FF2068416901F41D
:1018100080514161206803F0C7F9800415D5206824
:1018200002F0A2FD206803F086F9E07100F070FA82
:101830000146E279206803F019FA204600F05CF9CD
:101840002068416901F400514161206803F0ACF95E
:10185000000707D5204600F069F92068416901F0CA
:1018600008014161206803F09FF9000616D5A869B8
:1018700020F08001A96101260DE000BF06EBC60043
:1018800004EB800090F85702012803D1F1B2204602
:10189000FFF7CAFC761C2079B042EFD8206803F02D
:1018A00083F9C0021FD501264F4614E005EB461010
:1018B000D0F8000906EBC60104EB81010A7E012A7B
:1018C00008D1002806DACF75F0B240F0800120463A
:1018D000FFF7AAFC761C2079B042E7D8206841695E
:1018E00001F480114161206803F05EF9800234D573
:1018F00001204A4629E000BF05EB4011D1F8001B4A
:1019000000EBC00304EB830393F85862012E1BD154
:10191000002919DA94F8D464C1F3004106F00106F5
:101920008E4211D183F85722A96941F08003AB613F
:101930006969090608D4D5F8040840F40070C5F8B0
:10194000040805E00A30544F401C21798142D3D865
:101950002068416901F400114161206803F024F915
:10196000400007D52046FFF744FC2068416901F09C
:1019700080414161206803F017F940070AD52068CB
:101980004568680702D52046FFF74AFC2068416891
:1019900029434160BDE8FC9FD0F8E00402F099B90A
:1019A000D0F8E00402F0A9B9F8B5040005D094F825
:1019B00095042668002510B106E00120F8BD84F8E2
:1019C0009454204600F056F8032084F89504B6F1AC
:1019D000A04F00D1A571206802F078FE207C8DF820
:1019E000000094E80F0002F0CDFC0226B8BB0021F5
:1019F000206803F0FCF890BB002001270DE000BF39
:101A000000EBC00104EB81014F750875C8850D76A8
:101A1000CD610D62401CC0B24D6221798142EFD888
:101A2000002011E000EBC00104EB810181F8555268
:101A300081F8540281F85852C1F85C52C1F86052E2
:101A4000401CC0B2C1F8645221798142EAD8207C9E
:101A50008DF8000094E80F0002F07AFD10B184F8D0
:101A60009564AAE7657484F89574206802F062FDB5
:101A70000020F8BD10B586B0044614216846FEF774
:101A8000D7FB2068B0F1A04F2FD119480021026880
:101A900042F001020260006800F0010005904FF47E
:101AA000C05000900220CDE90101032003900A20DC
:101AB000049069460F48FFF7A5F90D48001D01681D
:101AC00041F0800101600A481430016841F480410E
:101AD00001600068002200F4804005901146432018
:101AE000FFF72EFB4320FFF71DFB06B010BD0000E3
:101AF000303802400000024070B50446C07901252C
:101B000070B1022801D0FEF713FE2946D4F8E00494
:101B100002F062F9D4F8E004BDE8704002F016B9B2
:101B20000025F2E7D0F8E00402F03FB9D0F8E00475
:101B300002F045B910B5044690F8940401280AD083
:101B4000012084F894046174206803F07EF800207A
:101B500084F8940410BD022010BDD0F8E02400F2F7
:101B60009C41104602F044B910B50446006894F850
:101B70009414012909D0012184F89414C1684906FC
:101B800009D5617B012902D005E0022010BD816BDF
:101B900041F480318163206802F08DFF206802F0FB
:101BA000BBFC002084F8940410BD000010B504466E
:101BB000D0F8E00402F05EF92068D0F8001E41F091
:101BC0000101C0F8001EE07A002804D00248016834
:101BD00041F00601016010BD10ED00E02DE9F04775
:101BE0000E46050065D0DFF81481D8F80000F7B282
:101BF00000F00700B04207D288F80070D8F8000063
:101C000000F00700B04254D128683D4C810712D53E
:101C1000400703D5206840F4E05020602878000792
:101C200003D5206840F4604020602068A96820F057
:101C3000F000084320602878C0072DD0304968683C
:101C40000839012812D0022813D0032811D00968BE
:101C5000890700292DDA216821F003010143216061
:101C6000FFF7C8F9814641F2883A0EE00968890316
:101C7000EFE709688901ECE7FFF7BCF9A0EB090180
:101C8000514502D90320BDE8F0872068696800F05B
:101C90000C00B0EB810FEFD1D8F80010404601F0F6
:101CA0000701B14207D90770006800F00700B04291
:101CB00001D00120E7E72878400705D52068E968CA
:101CC00020F4E050084320602878000706D52068FB
:101CD000296920F4604040EAC100206000F03EF82D
:101CE0002168084AC1F30311515CC84006490860E5
:101CF00006480068FFF7DCF90020C4E7003C02401A
:101D00000838024024550008EC000020E4000020C0
:101D10000148006870470000EC00002004480549B5
:101D200000680968044AC1F38221515CC8407047C9
:101D3000EC000020083802403455000804480549EA
:101D400000680968044AC1F34231515CC8407047D9
:101D5000EC0000200838024034550008154810B542
:101D6000006810F00C02144813D04110042A0FD060
:101D7000082A0ED10F4C241F2268236802F03F026C
:101D80005B0207D52068C0F38810A0FB010106E0C4
:101D9000084610BD2168C1F38811A1FB0001002392
:101DA000FEF70EFA2168C1F30141491C4900B0FB5E
:101DB000F1F010BD083802400024F4002DE9F84F7E
:101DC00004006ED02078DFF84C93C007A9F1040519
:101DD0004AD009F104000168C1F38101012908D04A
:101DE0000068C0F3810002280AD1D9F8000040023F
:101DF00006D52868800337D560680028E1D033E035
:101E00006068B0F5803F10D0B0F5A02F286810D0E2
:101E100020F480302860286820F4802028606068E2
:101E2000A8B1FFF7E7F806460DE0286840F48030D7
:101E3000F4E740F480202860F7E700BFFFF7DAF806
:101E4000801B642873D828688003F7D50CE0FFF75F
:101E5000D1F8064605E000BFFFF7CCF8801B6428E8
:101E6000F0D828688003F7D42078DFF8AC828007A8
:101E70004FF0000A3ED5A748001D016811F00C0F75
:101E800008D00068C0F3810002280BD1D9F8000007
:101E9000400207D42868800716D5E068012800D1E1
:101EA00012E033E1E068B8B10120C8F80000FFF7A4
:101EB000A1F8064605E000BFFFF79CF8801B02284A
:101EC000C0D828688007F7D52868216920F0F80075
:101ED00040EAC10028600DE0C8F800A0FFF78AF8CA
:101EE000064604E0FFF786F8801B02281FD8286802
:101EF0008007F7D42078000722D5864F874861698C
:101F0000703771B101210160FFF774F8064604E0F3
:101F1000FFF770F8801B022809D838688007F7D5CA
:101F20000EE0C0F800A0FFF765F8064605E082E085
:101F3000FFF760F8801B02287DD838688007F7D447
:101F40002078400768D5DFF8CCB100270BF13C0BB7
:101F5000DBF80000C0000BD4DBF8001041F080512A
:101F6000CBF80010DBF80000012700F08050009053
:101F70006B4E3068C00510D4306840F4807030601B
:101F8000FFF738F8009005E0FFF734F80099401AA1
:101F9000022850D83068C005F6D55E4EA0686C3671
:101FA00001280FD00528306810D020F001003060E3
:101FB000306820F004003060A068B8B1FFF71AF86C
:101FC00000900FE0306840F00100F4E740F00400BA
:101FD0003060F7E7FFF70EF80099411A41F28830B8
:101FE000814266D830688007F4D50EE0FFF702F82A
:101FF000009007E0FEF7FEFF0099411A41F2883099
:10200000814256D830688007F4D42FB1DBF8001035
:1020100021F08051CBF80010A069C8B33D49091DDB
:102020000968C1F3810102294AD00228504607D02D
:10203000C8F8600000E03CE0FEF7DCFF04463BE04F
:102040004746C8F86000FEF7D5FF064605E000BF2A
:10205000FEF7D0FF801B02282BD828688001F7D418
:10206000D4E907010843A16A2E4A490802EB01415D
:10207000626A41EA8211084394F82C1040EA016137
:10208000C9F8001001203866FEF7B4FF044606E0E8
:102090003EE000BFFEF7AEFF001B022809D828680B
:1020A0008001F7D534E000BFFEF7A4FF001B022833
:1020B00002D90320BDE8F88F28688001F4D427E016
:1020C0000128F7D0D9F80000E26900F480019142BC
:1020D0001CD1226A00F03F01914217D147F6C0712E
:1020E000626A0140B1EB821F10D1A26A4FF0FF3348
:1020F00000F4403103EB5202B1EB024F06D194F8E9
:102100002C1000F07060B0EB016F01D00120D1E71E
:102110000020CFE70438024000004742800E4742CB
:10212000007000400000FFFF70B5040009D0606A35
:10213000002540B125616561A56294F8510040B168
:102140000CE0012070BD6068B0F5827FF4D0E561DD
:10215000F2E784F85050204600F044F8022084F85A
:1021600051002068016821F040010160A0882189A8
:1021700000F4827001F404410843A18901F4006174
:102180000843217C01F002010843217D01F0010197
:102190000843218B01F400710843217F01F03801CD
:1021A000084394F8201001F080010843218D01F4C8
:1021B0000051084321680860A069042101EA104029
:1021C00094F8241001F01001084321684860206849
:1021D000C16921F40061C1616565012084F8510085
:1021E000002070BD10B586B0044614216846FEF785
:1021F0001FF813492068884220D112480021026844
:1022000042F480520260006800F4805005900D484E
:102210001438026842F001020260006800F0010018
:102220000590E02000900220CDE9010103200390F9
:102230000520049069460448FEF7E4FD06B010BD91
:1022400000300140443802400000024010B5401EFA
:10225000B0F1807F01D3012010BD4FF0E024606118
:102260000F21601702F0A0FD0020A061072020616F
:10227000002010BD7047704710B5040003D094F8DB
:102280003D0010B107E0012010BD002084F83C00A3
:10229000204600F01FF8022084F83D00211D206830
:1022A00000F00CFE012084F8460084F83E0084F81B
:1022B0003F0084F8400084F8410084F8420084F82C
:1022C000430084F8440084F8450084F83D00002071
:1022D00010BD000008B500680B49884212D10B48B8
:1022E000016841F4807101600068002200F4807090
:1022F000009011462D20FEF723FFBDE808402D2059
:10230000FEF710BF08BD000000200040403802402A
:1023100090F83D10012901D001207047022180F87A
:102320003D100168CA6842F00102CA6000681149A4
:10233000884214D0B0F1804F11D00F4988420ED09E
:102340000E4988420BD00E49884208D00D49884278
:1023500005D00D49884202D00C49884204D18168D9
:1023600001F00701062903D0016841F00101016075
:1023700000207047000001400004004000080040B9
:10238000000C0040000401400040014000180040E3
:1023900001680A6A41F211131A4207D10A6A9B10B6
:1023A0001A4203D10A6822F001020A60012180F872
:1023B0003D10002070470168CA6822F00102CA601F
:1023C00001680A6A41F211131A4207D10A6A9B1086
:1023D0001A4203D10A6822F001020A60012180F842
:1023E0003D100020704770472DE9F0410446006819
:1023F000C66805694FF00007A90713D5B10711D5C5
:10240000F91E01610120207720688069800720463D
:1024100002D0FFF7E8FF04E000F07EF8204600F06D
:102420007CF82777680716D5700714D521686FF0F8
:1024300004000861022020772068806910F4407F42
:10244000204602D0FFF7CFFF04E000F065F82046F9
:1024500000F063F82777280715D5300713D52168D2
:102460006FF008000861042020772068C0698007A9
:10247000204602D0FFF7B7FF04E000F04DF82046F9
:1024800000F04BF82777E80616D5F00614D521683A
:102490006FF010000861082020772068C06910F4F0
:1024A000407F204602D0FFF79EFF04E000F034F8A2
:1024B000204600F032F82777E80708D0F00706D06A
:1024C00021686FF001000861204600F027F8280617
:1024D00008D5300606D521686FF0800008612046D7
:1024E000FFF7C8FE680608D5700606D521686FF0AC
:1024F00040000861204600F01FF8A8060AD5B00683
:1025000008D521686FF0200008612046BDE8F04141
:10251000FFF7B1BEBDE8F08170477047006804491D
:10252000884203D103490888401C08807047000096
:10253000002000402E0000207047704770470000C8
:10254000F8B5016804460868CA684B6910F00F0FB7
:102550004FF0000559D003F0010602F4907737439D
:1025600065D0C10705D0D10503D5616C41F00101EB
:102570006164410705D5D90703D0616C41F00201C0
:102580006164810705D5D90703D0616C41F004016E
:102590006164010707D502F02001314303D0616C6B
:1025A00041F008016164616C00293AD0800604D5CD
:1025B000900602D5204600F017FD20684069616C46
:1025C000C0F38010090700D460B3204600F0E5FC9A
:1025D00020684069400621D52068143050E8001F6B
:1025E00021F0400140E80012002AF5D1E06BA8B1CB
:1025F00072490165E06BFEF712FB002811D0E06B19
:10260000016D01B0BDE8F040084783060FD5930681
:102610000DD52046BDE8F84000F0E6BC2046FFF7A7
:102620008DFFF8BD2046FFF789FF6564F8BD266B76
:102630002023012E7ED1C6067CD5D6067AD5086821
:102640004868009048694FF0020640064DD5E26B9D
:10265000106840684FF480770004000C3AD0A18DD8
:10266000814237D9E085D069B8422DD020680C303E
:1026700050E8001F21F4807140E80012002AF5D1D3
:102680002068143050E8001F21F0010140E80012DA
:10269000002AF5D12068143050E8001F21F04001D5
:1026A00040E80012002AF5D184F842302563206802
:1026B0000C3050E8001F21F0100140E80012002A01
:1026C000F5D1E06BFEF762FA6663A08DE18D401AEA
:1026D00081B206E0A18D8142A8D1D069B842A5D1CE
:1026E00066632046FFF729FFF8BDA08DE18D401AF3
:1026F00081B2E08D0028F7D00029F5D020680C3099
:1027000050E8002F22F4907240E80027002FF5D106
:102710002068143050E8002F22F0010240E8002722
:10272000002FF5D184F84230256320680C3050E842
:10273000002F00E006E022F0100240E80023002B0A
:10274000F3D1CDE705062BD5150629D594F8410020
:102750002128C9D1A068B0F5805F01D12069B0B14E
:10276000206A411C2162216800784860E08C401E8C
:102770000004000CE084B7D12068C16821F080011A
:10278000C1602068C16841F04001C160F8BD206AA5
:102790000088C0F308004860206A801C2062E5E7DA
:1027A0004006F3D55006F1D5CA68204622F0400213
:1027B000CA6084F8413000F0C4F8F8BD8D2F0008DD
:1027C00070B5040004D094F84100002510B106E073
:1027D000012070BD84F84050204600F023F82420EA
:1027E00084F841002068C16821F40051C16020468E
:1027F00000F05CFC2068016921F4904101612068CF
:10280000416921F02A0141612068C16841F4005109
:10281000C1606564202084F8410084F8420065634B
:10282000002070BD10B586B0044614216846FDF73F
:10283000FFFC18492068884229D117480021026806
:1028400042F010020260006800F01000059012488B
:102850001438026842F001020260006800F00100D2
:1028600005904FF4C06000900220CDE901010320E3
:1028700003900720049069460848FEF7C3FA002237
:1028800011462520FEF75CFC2520FEF74BFC06B028
:1028900010BD00000010014044380240000002401A
:1028A00070472DE9F843044690F8410098461646D3
:1028B0000D46202802D00220BDE8F88385B17EB104
:1028C00000206064212084F84100FEF793FBA68479
:1028D0008146E684A0682027B0F5805F02D003E03F
:1028E0000120E9E7206910B12E4600250EE0002600
:1028F0000CE08021204600F05FFCA8B9C6B116F8B4
:10290000010B21684860E08C401EE084E08C4B465F
:102910004FF00002CDF800800028EAD14FF04001CE
:10292000204600F049FC40B184F841700320C3E721
:1029300035F8020BC0F30800E3E784F8417000208B
:10294000BAE77047FEE70000F0B500230A243025FF
:1029500037261F4611E000BFB4EB107F02D905EB0C
:10296000107C01E006EB107C01F813C001EB430C76
:1029700000015B1C8CF80170DBB29342ECD3F0BD1C
:102980000148006800F002B80000002070B54568FA
:10299000036804464268114911484FF400760978EB
:1029A0008068B6EB135F04D10E4BA2F100629A422D
:1029B00005D34079BDE87040002200F005BA72B638
:1029C000FEF740F90848094920400860206880F374
:1029D0000888AC46BDE87040604700005000002009
:1029E00040000020FFFF0700F8FFFF0108ED00E0B6
:1029F00000B587B014216846FDF71AFC0D48002188
:102A0000026842F080020260026802F080020592D1
:102A1000026842F0010202600068029100F00100C9
:102A200005901020CDE9000169460348FEF7EAF958
:102A300007B000BD3038024000000240094810B520
:102A4000074901600621416040F6FF718160FEF791
:102A5000D7FA002803D0BDE81040FDF769BE10BDCD
:102A600000300040E4130020104810B50E4901600A
:102A70004FF482714160002102228160C0E903129B
:102A8000012242615202C0E9062101624162816273
:102A90000A21C162FFF748FB002803D0BDE81040BF
:102AA000FDF746BE10BD000000300140F0130020CD
:102AB0000B4810B50949016042F2CF014160002185
:102AC0000922C0E9021201618161FFF7D5FB0028EC
:102AD00003D0BDE81040FDF72BBE10BD0020004024
:102AE000481400200C4810B50A4901604FF4E13148
:102AF0004160002181600C22C160C0E90412816143
:102B0000C161FFF75DFE002803D0BDE81040FDF76E
:102B10000FBE10BD001001409014002010B500221F
:102B20000F49104800F0B6FF08B1FDF701FE0E494D
:102B30000C4801F0CBF908B1FDF7FAFD0B49094843
:102B400000F048FD08B1FDF7F3FD064801F042FA38
:102B5000002803D0BDE81040FDF7EABD10BD00001D
:102B60005C000020D814002048010020AC000020A8
:102B7000FEE7FEE70148FEF761BC0000D41B002021
:102B80002DE9F04103680D4604461E6C03EB451128
:102B9000D1F8080B94F806E04FF400474FF0200CF2
:102BA00004F29C42BEF1010F09D0DFF898E07645AF
:102BB00039D1020432D500BFC1F8087B3FE0224B77
:102BC0005FEA007E04D59E4239D90004F4D436E091
:102BD0005FEA806E02D5C1F808CB30E010F0280F14
:102BE0002DD19E4201D90004E6D405EBC50004EBCB
:102BF0008000D1F8101BD0F87432C1F31201591AB9
:102C0000C0F8681200F51570ADB903691BB1C26850
:102C10001144C1600FE0012120680AE080060AD556
:102C2000C1F808CB07E035B9D4F8640218B900211F
:102C3000184601F051FDE9B22046FEF7E7FA002000
:102C4000BDE8F0810A31544F0A30544F2DE9F84F56
:102C50000E4601EBC60100EB810481460568D4E90C
:102C600009101434884202D90120BDE8F88F081AEF
:102C7000A168814200D20846C01C870805EB4618AF
:102C80001BE000BFA0EB010AA068504500D28246BD
:102C90000AF10300870899F8060000901FFA8AF3EA
:102CA000F2B22846E16802F055F8E16801EB0A004B
:102CB000E060616901EB0A006061D8F8180980B230
:102CC000B84205D3D4E90401814201D20028D9D108
:102CD000D4E90401884208D806F00F010120884099
:102CE000D5F834188143C5F834180020BDE7704783
:102CF00010B51D48002404801C4804801C4801783D
:102D00001C4801701C49497841701C481D490470D9
:102D10001B480470012008701B48FFF739FB1B4853
:102D200004801B4804601B4804801B4804701B4837
:102D300004801B4804801B4804601B4804604FF457
:102D400080711A48FDF774FA4FF400642146184860
:102D5000FDF76EFA21461748FDF76AFABDE8104004
:102D6000154800F01BBC0000080000200A000020ED
:102D70004C00002058000020500000202A000020B5
:102D80002B0000202C000020481400202E000020E2
:102D90002000002028000020240000201000002037
:102DA00018000020140000201C00002080010020DA
:102DB000E4030020E40B0020D814002070470178C1
:102DC000407841EA002070471FB50B46A524042136
:102DD0008DF800405A248DF801408DF802008DF8DE
:102DE000033062B110788DF8040050788DF805003A
:102DF00090788DF80600D0788DF807000821684695
:102E0000FDF72AFB002800D0012004B010BDFEF71A
:102E10002DB9000030B593B030216846FDF708FAAF
:102E200014210CA8FDF704FA1B480025016841F0A5
:102E300080510160006800F08050119017480168CF
:102E400041F4804101600068022400F48040119048
:102E5000092000904FF4803001900120CDE9050455
:102E600080050790082008904FF4A870CDE9090468
:102E700007200B906846FEF7A1FF0CA90F2081E800
:102E800031004FF4A0500F90E002109005210CA8E3
:102E9000FEF7A4FE13B030BD403802400070004081
:102EA0000248016841F470010160704788ED00E05C
:102EB0000148FFF799BA000048140020F0B50268F5
:102EC000274B284D284E294F294C4FF0804C9842D3
:102ED00009D0604507D0A84205D0B04203D0B8421F
:102EE00001D0A04204D122F0700E4A6842EA0E02DC
:102EF00098421BD0604519D0A84217D0B04215D0D7
:102F0000B84213D0A04211D01A4DA8420ED01A4D8B
:102F1000A8420BD0194DA84208D0194DA84205D09F
:102F2000184DA84202D0184DA84203D122F4407592
:102F3000CA682A434D6922F080022A438D68C5621F
:102F40000D688562984201D0A04201D109690163F0
:102F5000016841F004010160012141610260F0BD9E
:102F6000000001400004004000080040000C004048
:102F7000000401400040014000440140004801407D
:102F800000180040001C00400020004010B5806B7D
:102F90000021C185FFF7D2FA10BD01680C3151E85C
:102FA000002F22F4907241E80023002BF5D1016834
:102FB000143151E8002F22F0010241E80023002BD8
:102FC000F5D1016B012909D101680C3151E8002FBD
:102FD00022F0100241E80023002BF5D1202180F8D7
:102FE000421000210163704708B590F84210222971
:102FF00001D0022008BD82684FF480539A4201D16B
:10300000016921B1816A9A421BD04AB10AE0026883
:10301000816A5268C2F308020A80816A891C08E04A
:10302000026972B10268526802F07F020A70816A16
:10303000491C8162C18D491E0904090CC18503D058
:103040001BE002685268F1E70168CA6822F02002BA
:10305000CA600168CA6822F48072CA6001684A695D
:1030600022F001024A61202180F8421000214163D0
:10307000026B012A03D0FFF713FC002008BD016397
:1030800001680C3151E8002F22F0100241E80023C2
:10309000002BF5D101680A68D20602D50A68496892
:1030A0000091818DFFF749FAE7E7000070B504460B
:1030B00000680169E26821F440511143016121690E
:1030C000A068E26908436169114308432168CA683E
:1030D00049F20C639A430243CA6020684169A269BD
:1030E00021F440711143416131492068884202D086
:1030F0003049884202D1FEF721FE01E0FEF70EFEC4
:10310000E2690023192164253226B2F5004F626876
:1031100028D0A0FB0101930F9200FDF751F8014662
:10312000B0FBF5F06FF01802504301EB800006EBA6
:103130000010B0FBF5F000F0F002B1FBF5F002EB8F
:103140000012B1FBF5F06FF01803584301EB80005B
:1031500006EB0010B0FBF5F000F00F002168104402
:10316000886070BDA0FB010192185B41FDF728F853
:103170000146B0FBF5F00201B1FBF5F06FF018036A
:10318000584301EB800006EBC000B0FBF5F000F007
:10319000F80002EB4002B1FBF5F0584301EB800070
:1031A00006EBC000B0FBF5F000F00700D6E700002A
:1031B00000100140001401402DE9F84398461746DD
:1031C0000D460446089E24E0701C22D0FDF712FF35
:1031D000A0EB0800B0421AD8CEB12068C1684907F8
:1031E00017D5802D15D0402D13D00168C94309078C
:1031F0000FD401680025406800902046FFF7CDFEFF
:103200000820606484F840500120BDE8F883032062
:10321000FBE72068006835EA000004D00020B842CF
:10322000D2D00020F1E70120F9E700000148FFF7C4
:1032300087B90000901400202DE9F0410C46D0F829
:10324000D412D0F8C82200EB8101D1F8C01229B302
:1032500004F00F0606EB860300EB830500276B697D
:103260004BB106EBC60602EB8602D269B3FBF2F65F
:1032700002FB1632A2B1C1F81472D0F8D42200EBCE
:103280008200D0F8C40203692BB1D1F808022246AB
:1032900001F5047198470020BDE8F0810320FBE7A9
:1032A00000231A4621466F6100F0F1FDF3E770B587
:1032B0000546D0F8D40205EB8000D0F8C04294B1A6
:1032C000284600F0C3FCC4F80C02D5F8D412D4F898
:1032D000040205EB8101D1F8C412CA6804F5037138
:1032E0009047002070BD032070BD000070B5234DD5
:1032F0000446297800F0EAFB2878002600F00F0049
:1033000000EB800004EB800080F8236069782046A1
:1033100000F0DCFB687800F00F0000EB800004EBAD
:10332000800080F86361A978204600F0CFFBA87880
:1033300000F00F0000EB800004EB800080F82360B9
:10334000C661D4F8D40204EB8000D0F8C01299B161
:10335000D0F8C40240688047D4F8D40204EB80005F
:10336000D0F8C00200F0BAFFD4F8D40204EB800019
:10337000C0F8C062C4F8BC62002070BDF400002038
:1033800010B5D0F8D41200EB8100D0F8C04284B15F
:10339000D0F8C41259B194F80002FF2807D08B6806
:1033A00094F8012221469847FF2084F8000200206B
:1033B00010BD032010BD00000A21018000487047A5
:1033C000F800002070B5064682210C4800F001FB91
:1033D00005460121094800F0FCFA0446812107480E
:1033E00000F0F7FA0DB11021A971402104B1A180BC
:1033F00000B1818043203080004870BD040100206E
:1034000070B5064682210D4800F0E3FA0546012119
:103410000A4800F0DEFA04468121084800F0D9FA93
:103420000DB11021A9714FF4007104B1A18000B158
:10343000818043203080014870BD000004010020DD
:1034400070B5064682210C4800F0C3FA05460121FA
:10345000094800F0BEFA04468121074800F0B9FA95
:103460000DB11021A971402104B1A18000B181806A
:1034700043203080004870BD040100202DE9F04752
:1034800004464FF40775284600F02AFF06004FF067
:10349000000865D02946FCF7CBFED4F8D4023E4D97
:1034A00004EB80004FF01009C0F8C062C4F8BC62A1
:1034B000207C4FF4007A0127E8B3402302222978C8
:1034C000204600F02EFC2878402300F00F0000EB8F
:1034D000800004EB800080F8237002226978204687
:1034E00000F01FFC6878082300F00F0000EB80005C
:1034F00004EB8000032280F86371A978204601F074
:103500000F0101EB810104EB8101C1F81C90A97846
:1035100000F007FCA87800F00F0000EB800004EB3F
:10352000800080F82370C6F80482D4F8D40247469D
:1035300004EB800000E01BE0D0F8C40206F5017641
:10354000006880473761776132687AB1207C00B3C8
:1035500040236978204600F0F0FB0020BDE8F087AA
:10356000D4F8D41204EB8101C1F8C0820220F5E73F
:10357000534602222978204600F0D3FB2878534690
:1035800000F00F0000EB800004EB800080F8237057
:10359000A3E75346DDE70000F400002010B5D0F8A3
:1035A000D41200EB8101D1F8C01259B1027C084C51
:1035B000002AD1F8042207D04023617800F0BDFB37
:1035C000002010BD032010BD4FF40073F5E700008C
:1035D000F400002039B1D0F8D42200EB8200C0F80A
:1035E000C4120020704703207047D0F8D42200EBAB
:1035F0008200D0F8C00218B1C0F804120020704751
:1036000003207047D0F8D43200EB8300D0F8C0021A
:1036100028B1C0F81022C0F808120020704703201B
:1036200070472DE9FC410646D0F8D4020C4606EB63
:1036300080000021D0F8C0728DF80010ADF80410A1
:103640000D4637B1217811F060022FD0202A4BD1DE
:1036500002E00320BDE8FC81E288F2B109060DD545
:10366000D0F8C40263783946D0F808C01846E0475D
:10367000E288072A00D9072239462DE0607887F8CA
:103680000002E088402800D34020C2B287F801221F
:103690003946304600F081F82BE0D0F8C402637858
:1036A0000022866821461846B04722E0607830B193
:1036B00001281ED00A2809D00B2815D110E096F851
:1036C0009C02032810D1022201A905E096F89C0271
:1036D000032809D101226946304600F07AF808E053
:1036E00096F89C02032804D02146304600F04AF8A0
:1036F00003252846AEE7000010B5D0F8D41200EB41
:103700008101D1F8C02201211AB1D2F8143213B1CB
:1037100016E0032010BD0121C2F814120949D2F8A5
:103720001032097801F00F0404EB840400EB8404E8
:103730006361D2F81032D2F8082200F0A8FB002111
:10374000084610BDF400002010B5D0F8B8220024BF
:103750005268904700B10324204610BD00207047F6
:1037600000207047134610B50A46002100F0E5FA24
:10377000002010BD134610B50A46002100F087FB5B
:10378000002010BD10B50446802100F061FB2046EA
:10379000BDE81040002100F05BBB10B50323C0F86A
:1037A0009432C0F85421C0F858211346C0F864116F
:1037B0000A46002100F0C1FA002010BD10B5052115
:1037C000C0F8941200231A46194600F0B6FA0020F9
:1037D00010BD10B50223C0F89432426182611346D5
:1037E00041620A46002100F052FB002010BD10B5D6
:1037F0000421C0F8941200231A46194600F047FB32
:10380000002010BD10B50A46024903A000F00FF9D0
:10381000004810BDB417002043444320436F6E6638
:103820006967000012200880004870477C00002073
:1038300010B50A46024903A000F0F9F8004810BD8F
:10384000B417002043444320496E74657266616377
:1038500065000000042008800048704778000020C0
:1038600010B50A46024903A000F0E1F8004810BD77
:10387000B417002053544D6963726F656C656374AF
:10388000726F6E696373000010B50A46024903A0A7
:1038900000F0CDF8004810BDB417002053544D334C
:1038A00032205669727475616C20436F6D506F726F
:1038B0007400000010B51A2008800A480168001D35
:1038C0000468001D0068081809D008220649FFF79F
:1038D0003BF80549042210312046FFF735F802482D
:1038E000801E10BD107AFF1F92000020F8B504461C
:1038F0000020ADF8000048880D46010A08295FD273
:10390000DFE801F05E0409175E5E3C45D4F8B412AE
:10391000207C0A6819E0207C02260028D4F8B8022E
:1039200005D0C16A684688470146467039E0816A19
:10393000F8E7C0B2062843D2DFE800F0030A10140B
:10394000181CD4F8B402426805E0694690471CE0B0
:10395000D4F8B402826892B3207CF6E7D4F8B402BB
:10396000C268F8E7D4F8B4020269F4E7D4F8B40204
:103970004269F0E7D4F8B4028269ECE7207CF0B940
:10398000D4F8B802416B68468847014609E0207CBC
:10399000A8B9D4F8B802016B6846884701460720E9
:1039A0004870EA888AB1BDF8000040B1824200D96F
:1039B0000246ADF800202046FFF70BFFF8BDFFE7F9
:1039C00029462046FFF7DEFEF8E72046FFF70FFF07
:1039D000F4E778B50E4642880178002504468A420D
:1039E00012D9ADF800100AE0694600F019F84178E4
:1039F000052904D181780546B14205D000256188AA
:103A0000BDF800209142EFD8284678BD014600203D
:103A100002E0401CC0B2491C0A78002AF9D1704764
:103A20000A8803781A440A8001780844704770B500
:103A300016460D46002820D00446FFF7E7FF022176
:103A400001EB40014FF40070814204D82046FFF79B
:103A5000DDFF4000801C30803078287003206870C3
:103A60000220002206E02954401CC0B22A54401C07
:103A7000C0B2641C21780029F5D170BD01004FF05F
:103A8000000004D0012901D0022901D00320704791
:103A90000120704778B10023C0F8B832C0F8C432B2
:103AA000C0F8D03209B1C0F8B412012180F89C12DC
:103AB000027000F0CFB80320704710B5D0F8C802EC
:103AC000FDF7E6FBBDE81040FFF7D8BF10B5D0F812
:103AD000C802FDF7B8FBBDE81040FFF7CFBF70B5D7
:103AE0000446002521B194F89C02032846D050E0FA
:103AF000D4F8941204F11400022939D18189426862
:103B00008A420AD9511A41608289016911440161CE
:103B100042682046FFF72EFE0FE0914214D1006864
:103B2000884211D3D4F8981288420DD2002211464F
:103B30002046FFF71FFEC4F8985200231A46194684
:103B4000204600F0FAF813E094F89C02032808D10C
:103B5000D4F8B802C16821B1C4F8D452C168204673
:103B600088478021204600F073F92046FFF726FEA3
:103B700094F8A00268B184F8A0520AE0D4F8B80220
:103B8000426932B1C4F8D4524269204690470028B5
:103B900000D1002070BD10B50446002221B194F878
:103BA0009C02032834D03EE0D4F8941204F5AA70A5
:103BB000032938D1818943688B420ED9591A416053
:103BC000828901691144016142688089824200D87A
:103BD00002462046FFF7C6FD25E094F8AA0210F041
:103BE0001F0003D0012802D0022800D0002294F840
:103BF0009C02032808D1D4F8B802016921B1C4F8A5
:103C0000D4220169204688472046FFF7F0FD0AE0EC
:103C1000D4F8B802836933B1C4F8D422826920464B
:103C20009047002800D1002010BD0020704710B53B
:103C30000024012180F89C12D0F8B82222B15268E9
:103C40000179904700B10324204610BDD0F8C80286
:103C5000FDF74BBB10B5017839BB15490222C1F8FD
:103C6000E004C0F8C8124FF0A040086004200871BA
:103C7000CA71002088714A728872C872087388738A
:103C8000C8730846FDF790FE08B1FCF751FD80218E
:103C90000748FDF788FA402200210548FDF787FA1A
:103CA000802201210248FDF782FA002010BD0000A9
:103CB000D41B00200A0601F07F01D0F8C80201EBF6
:103CC000C10100EB810001D5807D704790F856025C
:103CD000704710B5D0F8D42200EB8202D2F8B82297
:103CE00022B190F89C32032B02D004E0032010BDD7
:103CF000126A02B19047002010BD10B5D0F8D4224E
:103D000000EB8202D2F8B82222B190F89C32032B49
:103D100002D004E0032010BD526A02B19047002097
:103D200010BD10B51C461346D0F8C8022246FDF758
:103D3000E5FABDE81040FFF7A1BE10B5D0F8C80203
:103D4000FDF70DFBBDE81040FFF798BE2DE9F041EF
:103D500000260125044680F89C52C4F894626660EF
:103D6000C4F8A46280F8A062D0F8B80230B142680A
:103D700022B100212046904700B1032600224023B3
:103D800011462046FFF7CDFF402784F86351A4F881
:103D900060713B46002280212046FFF7C2FF84F875
:103DA000235027843046BDE8F08190F89C12042906
:103DB00003D190F89D1280F89C120020704710B536
:103DC00090F89C12032905D1D0F8B81211B1C96935
:103DD00001B18847002010BD01740020704710B564
:103DE000D0F8C802FDF7A6FEBDE81040FFF746BEBA
:103DF00070B5044600F2AA20054600F051F80120F3
:103E0000C4F89402B4F8B002C4F8980294F8AA0274
:103E100010F01F010AD001290ED0022912D000F0A3
:103E200080012046BDE8704000F012B829462046C7
:103E3000BDE8704000F0D0B829462046BDE870408B
:103E400000F013BA29462046BDE8704000F05AB988
:103E500010B5D0F8C802FDF79EFABDE81040FFF794
:103E60000DBE10B5D0F8C802FDF77EFEBDE81040CB
:103E7000FFF704BE90F89C12042903D090F89C121E
:103E800080F89D12042180F89C120020704710B524
:103E9000D0F8C802FDF7B8FABDE81040FFF7EEBD54
:103EA00070B5054611F8010B2870087868704C1C35
:103EB0002046FEF784FF6880A41C2046FEF77FFFA3
:103EC000A880A01CFEF77BFFE88070BD38B50446D3
:103ED0000020ADF80000A1B1C4F8B812D4F8D402A3
:103EE00004EB8000D0F8B802C16A19B1684688476F
:103EF000C4F8D002D4F8D802401CC4F8D80200207C
:103F000038BD032038BD02460020D2F8B832002B5D
:103F100002D01B6810461847704700002DE9F04199
:103F200088462B4E8978002504463170012906D930
:103F300041462046FFF726FC0320BDE8F08194F8B7
:103F40009C02022702280CD003281DD0414620469F
:103F5000FFF718FC31782046FFF7F6FB03252846CB
:103F6000EBE789B320466160FFF7CDFF050004D081
:103F700041462046FFF706FC1DE02046FFF737FCD0
:103F8000032084F89C02EAE7C1B1606888421BD034
:103F9000C1B22046FFF7D8FB317820466160FFF7B9
:103FA000B2FF050010D041462046FFF7EBFB217918
:103FB0002046FFF7C9FB84F89C72D0E784F89C7216
:103FC00020466160FFF7C0FB2046FFF710FCC6E704
:103FD000F0000020FFF745BF2DE9F0410A780025E9
:103FE00012F060020CD0202A01D0402A7DD1D0F8F6
:103FF000D42200EB8202D2F8B8229268904731E0D6
:104000004B78002201260A2B6FD2DFE803F04166CD
:104010006E586E08056E2D29FFF768FC67E00446B0
:104020008888D8B9C888C8B94888802816D200F0CE
:104030007F0794F89C02032810D084F89E723946BA
:104040002046FFF7CCFE2046FFF7D1FB1FB1022030
:1040500084F89C024BE084F89C6248E0204644E0EF
:10406000FFF75CFF054642E0CB88012B3DD190F87D
:104070009C32012B04D0022B02D0032B35D104E05B
:104080008260012200F1080116E00122011D13E007
:1040900090F89C22012A03D0022A01D0032A24D1BD
:1040A000CA88022A21D1C660D0F8A41209B103211E
:1040B000C160022200F10C01FFF78BFB17E04A8878
:1040C000012A02D0022A03D00FE0C0F8A46216E051
:1040D0008988090A80F8A01211E090F89C32012B1F
:1040E00008D0022B06D0032B04D0FFF74BFB284649
:1040F000BDE8F08149880129F9D1C0F8A422FFF771
:1041000076FBF4E72DE9F041054608780C790E4678
:104110004FF0000810F060000BD0202801D040289C
:104120006BD121462846FFF719FBFF2800D0D8B3F2
:1041300098E07078C8B3012824D003285DD195F8A1
:104140009C02022802D0032857D10CE0002C54D046
:10415000802C52D021462846FFF77AFE802128463F
:10416000FFF776FE7EE0708840B93CB1802C05D028
:10417000C88818B921462846FFF76AFE2846FFF787
:1041800036FB6FE095F89C020228DFD0032866D149
:10419000708888BB600603D021462846FFF78DFC57
:1041A0002846FFF724FBBCE700E00AE0C5F8D4028C
:1041B000D5F8B8028268FAB1314628469047804661
:1041C00050E095F89C020027022802D0032846D12F
:1041D00014E00CB1802C42D1200604F07F0000EBEB
:1041E000800005EB800101D5143101E001F5AA71D1
:1041F000022201F80E7F2EE034E030E0200604F0C9
:104200000F0000EB800005EB80000AD590F823003A
:1042100028B304F07F0000EB800005EB8006143625
:104220000AE090F86301D0B104F07F0000EB800059
:1042300005EB800606F5AA764CB1802C07D0214606
:104240002846FFF737FD10B10120B07300E0B773C7
:10425000022206F10E012846FFF7BBFA02E02846CB
:10426000FFF790FA4046BDE8F08170B50546087842
:1042700000240E4610F0600003D0202801D0402812
:1042800027D195F89C02012803D0022801D00328E9
:104290001FD1B088C1B201291AD8C1B22846FFF790
:1042A0005FFAFF280CD058B9D5F8B8128A683AB12D
:1042B000C5F8D4028A68314628469047044600E093
:1042C0000324F088204307D12846FFF790FA03E043
:1042D00031462846FFF756FA204670BD7047000069
:1042E00000487047B419002070B50A78012302F025
:1042F0000F054E78AB401B4CD0F81C58012E17D040
:1043000045EA0343C0F81C3800EB4210D0F8002BFC
:1043100012040BD4D0F8002B0B890979C3F30A03DC
:104320001A4344EA81410A43C0F8002B002070BDC3
:104330009BB21D43C0F81C5800EB4210D0F8003966
:104340001B04F3D4D0F800390D890979C5F30A05A7
:1043500089042B4341EA82510B432343C0F80039BF
:10436000E4E7000000800010D0F800196FF30A01A4
:10437000C0F80019D0F8041841F48071C0F804188E
:104380000020704770B50D460446C2F3072104981B
:104390001E4601291BD0E06840F04000E060204646
:1043A00000F032F8C6F307210029A16B26D021F4D2
:1043B0008031A163C5F30741012907D1A16841F00C
:1043C0000601A160A16841F02001A16070BDA16B50
:1043D00021F48031A163E1680A4A1140E160E1689B
:1043E00021F44011E160C0B2012803D1E06840F43B
:1043F0008010E060204600F007F8DBE741F48031F0
:10440000D7E70000BFFFBDFF08B5002100914FF0C6
:104410007061009A521C00928A4210D80269002AE8
:10442000F7DA0A220092521E0092FCD1026942F091
:1044300001020261009A521C00928A4201D90320B3
:1044400008BD0269D207F5D1002008BD30B54C780F
:104450000A78012300EB4212012C2CD0D2F8004B39
:10446000002C0BDAD2F8004B44F00064C2F8004B89
:10447000D2F8004B44F08044C2F8004BD0F83C58CE
:104480000C7804F00F0403FA04F425EA0444C0F89D
:104490003C48D0F81C48097801F00F018B4024EA11
:1044A0000341C0F81C18D2F8000B19490840C2F8A3
:1044B000000B002030BDD2F80049002C0BDAD2F8F6
:1044C000004944F00064C2F80049D2F8004944F0C1
:1044D0008044C2F80049D0F83C480D7805F00F053B
:1044E00003FA05F5ADB2AC43C0F83C48D0F81C481F
:1044F000097801F00F018B4099B28C43C0F81C4839
:10450000D2F8000903490840C2F80009D1E70000C9
:104510000078F3EF007833ECD0F8001E21F00301AF
:10452000C0F8001ED0F8041821F00201C0F80418E9
:1045300000207047D0F8001E21F00301C0F8001ED3
:10454000D0F8041841F00201C0F8041800207047A8
:104550002DE9F04F00250E46044617462846294609
:1045600004EB8002C2F80411401C0F28F8D3C3F3F7
:1045700007405FEA0009204616D0806B20F4001245
:10458000A263A06B40F40022A2630846884621463D
:10459000C4F8000EC7F30720012817D00846D1F849
:1045A000001841F0030118E0D0F8040840F00202BE
:1045B000C4F80428A06B40F40012A263A06B20F49E
:1045C0000022A263A06B20F48022DDE7300E0846B3
:1045D000D1F8001801D041F00101C0F800181021F5
:1045E00000F08BFA00B10125204600F06AFA00B114
:1045F00001254046C4F81088C4F81488C4F81C8803
:1046000000214FF0006B4FF0904E4FF67F3AF2B220
:1046100015E000BF04EB4113D3F800C9BCF1000F53
:1046200006DA11B1C3F800E904E0C4F800B901E00A
:10463000C3F80009C3F81009C3F808A9491C8A4245
:10464000E8D8002115E000BF04EB4113D3F800CBFC
:10465000BCF1000F06DA11B1C3F800EB04E0C4F8B6
:1046600000BB01E0C3F8000BC3F8100BC3F808ABA4
:10467000491C8A42E8D8D4F8101821F48072C4F892
:104680001028A0616FF080406061C6F3074018B940
:10469000A06940F01000A061A0690A490843A06128
:1046A000C7F3074018B1A06940F00800A061B9F154
:1046B000010F03D1A06904490843A0612846BDE861
:1046C000F08F000000383C8004000040816821F039
:1046D000010181600020704710B5036C134CA342A8
:1046E00003D9D0F8003B002B1EDB0023C0F8103BA1
:1046F000D0F8103B43F40023C0F8103BD0F8103B37
:1047000043F01803C0F8103BD0F8103B43F0C0430F
:10471000C0F8103B012907D1C0F8142BD0F8001BBA
:1047200041F08021C0F8001B002010BD0A30544F1A
:104730004A780B78012A00EB43100BD0D0F8002BFD
:1047400022F40012C0F8002B0979032914D00229A1
:1047500012D017E0D0F8002922F40012C0F8002986
:104760000979032901D002290CD1D0F8001941F0B0
:104770008051C0F8001905E0D0F8001B41F08051CD
:10478000C0F8001B002070470A784B78D1B200EBCC
:104790004110012B12D0D0F8001B002906DB2AB1F2
:1047A000D0F8001B21F08041C0F8001BD0F8001B9E
:1047B00041F40011C0F8001B00207047D0F8001928
:1047C000002906DB2AB1D0F8001921F08041C0F899
:1047D0000019D0F8001941F40011C0F80019EBE7F6
:1047E000F8B50C784F788B4DE3B26FF0604600EB74
:1047F0004313012F29D0D3F8107B6FF31207C3F8AE
:10480000107BD3F8107B2F40C3F8107B002C7DD099
:104810000D69002D7BD08C6825446D1EB5FBF4F529
:10482000ADB26C430C62D3F8104B06EAC5452C437D
:10483000C3F8104BD3F8104B0D6AC5F312052C4387
:10484000C3F8104B012A70D0CBE00F69EFB1D3F859
:1048500010796FF31207C3F81079D3F810792F404D
:10486000C3F810790CB30F698D682F447F1EB7FB16
:10487000F5F5D3F81079ADB206EAC5463743C3F86B
:1048800010790E79012E1CD02AE0D3F810692E4041
:10489000C3F81069D3F8105945F40025C3F810592E
:1048A000D3F810596FF3120520E00E698D68AE42FF
:1048B00000D90D61D0F8105945F40026C0F81069F0
:1048C0000EE0D3F8106926F0C046C3F81069D3F89B
:1048D00010694FF0C04707EA45752E43C3F81069C9
:1048E000D3F810590E69C6F312063543C3F81059B0
:1048F000012A1BD000EB4413D3F8004944F00444D0
:10490000C3F800490C79012C31D001E044E057E0B4
:104910000A695AB3D0F83428097801F00F0301214D
:1049200099400A43C0F8342871E056E0CA691AB1C8
:1049300000EB4413C3F81429097901290ED1D0F8EA
:104940000818C90500EB4411D1F8002902D442F03F
:10495000005201E042F08052C1F8002900EB4410FF
:10496000D0F8001941F00441C0F800194FE0D0F828
:104970000848E405D3F8004902D444F0005401E0AB
:1049800044F08054C3F8004900920A8A93B20A782E
:10499000C96800F0DFF93AE00C690CB18C680C6171
:1049A0008C680C62D0F8105BC4F312042543C0F885
:1049B000105BD0F8104B44F40024C0F8104B41E7D2
:1049C000D3F8104B8D68C5F312052C43C3F8104B78
:1049D000D3F8104B44F4002432E7CA680AB1C3F894
:1049E000142B097901290CD1D0F80808C005D3F897
:1049F000000B02D440F0005001E040F08050C3F8BA
:104A0000000BD3F8000B40F00440C3F8000B00206B
:104A1000F8BD0000FFFF07E038B500220092134602
:104A20004D780A7842F2107400EB4212012D19D031
:104A3000D2F8005B002D3CDAD2F8005B45F000654F
:104A4000C2F8005B0A7800EB4212D2F8005B45F036
:104A50008045C2F8005B009A521C0092A24221D904
:104A6000012326E0D2F80059002D22DAD2F80059AD
:104A700045F00065C2F800590A7800EB4212D2F8FE
:104A8000005945F08045C2F80059009A521C009226
:104A9000A242E5D80A7800EB4212D2F80029002A97
:104AA000F3DB06E00A7800EB4212D2F8002B002A72
:104AB000D1DB184638BD816841F0010181600020DA
:104AC000704708B500214FF070620091009B5B1C9D
:104AD000009393420AD80369002BF7DA0091102162
:104AE00001610099491C0091914201D9032008BD40
:104AF0000169C906F5D4002008BD18B500224FF0A1
:104B000070630092009C641C00949C420CD8046961
:104B1000002CF7DA0092202242EA8111016100990B
:104B2000491C0091994201D9032018BD01698906E9
:104B3000F5D4002018BDD0F8080810F0060004D005
:104B4000022803D0062801D00F20704702207047AA
:104B5000406900F001007047D0F81818D0F81C0820
:104B6000084080B27047D0F81818D0F81C080840E8
:104B7000000C704710B5D0F81038D0F8342801F088
:104B80000F0400EB4110E24002F00102D0F80809E6
:104B900043EAC212104010BD00EB4111D1F8081BCE
:104BA000D0F8140808407047416980690840704790
:104BB00030B503460846940802F00301002203F5CD
:104BC000805303E01D6840F8045B521CA242F9D3F5
:104BD00000290BD01C680022D50024FA05F3491ED9
:104BE000521C090400F8013B090CF5D130BD70B529
:104BF0000446C068002520F0C040E060012901D0D3
:104C000079B120E0E06840F00050E0600A20FCF755
:104C10003DF860690A3510F0010F10D1C82DF5D3A9
:104C20000DE0E06840F08040E0600A20FCF72EF8DC
:104C300060690A3510F0010F01D0C82DF5D3C82DD9
:104C400001D0002070BD012070BDD0F8002822F4F2
:104C5000FE62C0F80028D0F800284FF4FE6303EA93
:104C600001110A43C0F8002800207047022A3ED1F3
:104C7000264A274B0A449A4201D20F2138E0254A9E
:104C8000254B0A449A4201D20E2131E0234A244B9B
:104C90000A449A4201D20D212AE0224A224B0A44B8
:104CA0009A4201D20C2123E0204A214B0A449A4225
:104CB00001D20B211CE01F4A1F4B0A449A4201D229
:104CC0000A2115E01D4A1E4B0A449A420FD31D4A81
:104CD0001D4B0A449A4201D2082109E01B4A1144A3
:104CE0001B4A914201D2072102E0062100E009217E
:104CF000C26822F47052C260C2684FF4705303EA73
:104D000081210A43C260002070470000405327FF02
:104D100000350C00401E1BFF40420F0000DC0BFF63
:104D2000804F1200808CF9FE20D6130060B6E5FE9D
:104D300060E3160000D3CEFE40771B00C05BB3FEDD
:104D4000C091210000CA91FE20753800E05459FE40
:104D5000E09C410010B5029C74B9DB1C9C0800EB80
:104D60000230002300F5805004E000BF51F8042B0E
:104D700002605B1CA342F9D3002010BDFEE70000D7
:104D80000FB4084B10B504A902AA039800F02CF840
:104D9000044602A9002000F058FA204610BC5DF835
:104DA00014FB00004B5200080907090E002804DB21
:104DB00000F1E02080F80014704700F00F0000F1CF
:104DC000E02080F8141D704702E008C8121F08C1D7
:104DD000002AFAD170477047002001E001C1121F7C
:104DE000002AFBD1704700002DE9FF4F8DB00F4620
:104DF0000546002606E025280BD0DDE90F12904776
:104E00006D1C761C28780028F5D111B03046BDE81D
:104E1000F08F0024A246A1460122EC4900E00443A1
:104E200015F8013F203B02FA03F00842F7D1287839
:104E30002A2810D06FF02F022878A0F1300109291C
:104E400014D80AEB8A0102EB410144F0020400EBA2
:104E5000010A6D1CF0E701CF5FEA000A03D544F4B4
:104E60000054CAF1000A44F002046D1C28782E2870
:104E700017D115F8010F44F004042A280ED06FF062
:104E80002F022878A0F1300109290AD809EB8901FD
:104E900002EB410100EB01096D1CF2E757F8049B9E
:104EA0006D1C28786C280FD006DC4C2817D0682899
:104EB0000DD06A2814D104E0742810D07A280FD1BC
:104EC0000DE044F400140AE044F4801401E044F4DA
:104ED00040146978814202D104F580146D1C6D1C68
:104EE0002A786E2A1FD00CDC632A31D004DC002A19
:104EF0008BD0582A11D1A3E0642A68D0692A0CD13A
:104F000065E0732A2ED004DC6F2A73D0702A04D196
:104F10009BE0752A6FD0782A6ED01046DDE90F121B
:104F20009047761C50E1C4F30250022806D00328B3
:104F300009D0042801CF09D0066045E101CFF1175F
:104F4000C0E9006140E101CF06803DE106703BE130
:104F500017F8040B8DF8000000208DF80100EB46D7
:104F6000012003E057F804BB4FF0FF3061074FF01A
:104F7000000102D40DE008F10101884649450FDA2D
:104F80008045F8DB1BF808100029F4D108E008F18F
:104F9000010188468142FADB1BF808100029F6D18E
:104FA000DDE90F23AAEB08008146214600F036F91F
:104FB000304400EB080604E0DDE90F121BF8010B9A
:104FC0009047B8F10108F7D221464846F7E00A2198
:104FD000C4F302534FF0000B0891022B04D001CF11
:104FE000C117032B09D00AE0FF1D27F00707F7E8D8
:104FF000020108E032E01FE020E000B2C117042BFC
:1050000001D140B2C117031E71F1000307DA4FF05E
:10501000000CD0EB0C006CEB01012D2302E023050A
:1050200004D52B238DF82430012303E0E30701D0BE
:105030002023F7E7984658E00A2110E010210EE0FF
:1050400010204FF0000B08900CE010214FF0000BE7
:1050500044F004044FF00809089103E008214FF0E0
:10506000000B0891C4F30253022B04D001CF00219E
:10507000032B06D006E0FF1D27F00707F7E8020123
:1050800003E080B2042B00D1C0B24FF00008230728
:105090002BD5702A07D0DDF820C08CF0100C5CEA0C
:1050A0000B0C05D00EE040238DF82430012308E0DE
:1050B00050EA010306D030238DF824308DF82520E6
:1050C00002239846DDF820C08CF0080C5CEA0B0C3B
:1050D0000BD150EA010301D1630706D530238DF8C7
:1050E00024304FF00108A9F10109582A04D038A250
:1050F0000B9208AA0A920BE03AA2F9E75B46089ADB
:10510000FBF75EF80B9B9B5C0A9A521E0A92137087
:1051100050EA0102F2D10A98ADEB000000F1200B39
:10512000600702D524F4803401E04FF00109D9452D
:1051300002DDA9EB0B0000E0002000EB0B01414475
:105140000890AAEB010AE00306D4DDE90F2321460B
:10515000504600F063F806444FF0000908E009A942
:1051600011F80900DDE90F12904709F10109761CD9
:10517000C145F4DBE0030CD5DDE90F2321465046A1
:1051800000F04CF8064404E0DDE90F1230209047AF
:10519000761C0899481E08900029F5DC08E00A985A
:1051A0000A990078491C0A91DDE90F129047761C94
:1051B000BBF10001ABF1010BF1DC21465046DDE90A
:1051C0000F2300F019F806446D1C1BE609280100A6
:1051D000303132333435363738396162636465666D
:1051E000000000003031323334353637383941422F
:1051F00043444546000000002DE9F04104460025E7
:105200001E461746880404D405E039462020B047DE
:105210006D1C641EF9D52846BDE8F0812DE9F041EA
:10522000044600251E469046C80301D5302700E0FD
:105230002027880404D505E041463846B0476D1C58
:10524000641EF9D52846BDE8F0810A68531C0B603E
:105250001070704708B5FBF711FFFDF7DBFDFDF798
:10526000C7FBFDF73FFCFDF759FCFDF7E7FBFDF73A
:10527000FBFBFDF71DFCFDF73BFD6448FDF748F81F
:10528000634D644EDFF89091DFF890B1644C654F48
:10529000DFF89481DFF894A1FBF758FB318864A014
:1052A00000F0ECF820782978884217D1172164A003
:1052B000FBF7D2F86423172261A16748FDF7F1FAE2
:1052C0004FF4FA70FBF7E2FC308843F698218842ED
:1052D000E2D9B979617098F8040013E069788842DE
:1052E000F7D0A978884213D17979617098F80400D1
:1052F0000022FDF769FDFBF7DFF830B1D8F80800B0
:10530000397880780022FDF75FFDFDF739FBC3E7B0
:10531000E9788842C0D16078F978884212D14F4844
:1053200001684F48FBF718FB397818B1D8F8080026
:10533000007813E098F802000022FDF745FDB878E8
:1053400060700EE0397988420BD1B9F80000FBF7A4
:1053500021F9E0B3D8F80800397840780022FDF749
:1053600033FD6078B978884296D1308840F6B831FC
:10537000884291D9B9F8000058B139796170FBF7CA
:1053800009F928B3D8F80800397840780022FDF7E9
:105390001BFDDAF800103248FBF774F83149086059
:1053A000DBF80010884223D08DF80010080A8DF831
:1053B0000100080C8DF80200080E8DF80300D8F8E3
:1053C000080039786A460079FDF7FEFC01E003E049
:1053D00008E0FAF795FF5FE7B8786070397898F8D9
:1053E0000200BBE7B8796070397898F80200CDE721
:1053F000B979617098F804000022FDF7E5FCDAF84D
:10540000001019A000F03AF87FE7000048140020CF
:105410004C0000202E00002028000020300000203A
:105420005800002050000020400000201C000020F8
:1054300054696D6572436F756E7465725F6D73004C
:1054400057616974696E67205374617274204D6F7F
:1054500064652E2E2E0D0A00901400200C000020F2
:105460000000040834000020746F74616C207772AF
:105470006974652073697A650000000000B591B019
:105480000B460246009106A101A8FFF779FC82B203
:105490004FF0FF3301A90A48FDF703FA11B000BD30
:1054A0005B25735D2056616C7565203D20256C750C
:1054B000202830782530386C58290D0A000000006B
:1054C0009014002000000008004000080080000840
:1054D00000C00008000001080000020800000408E5
:1054E00000000608004000000040000000400000EE
:1054F0000040000000000100000002000000020067
:105500000000020000000000010000000200000096
:105510000300000004000000050000000600000079
:10552000070000000000000000000000010203046A
:105530000607080900000000010203045C5500088A
:105540000000002080010000A80200082856000882
:105550008001002038230000D84D0008214B0408AA
:1055600004012E7F010203040506092307382A20BF
:105570000C6910411325381B0855041A61041A8957
:10558000041AB5041A05041A310417040309041295
:1055900001140202021640830440571A0239220104
:1055A000031A1A031325031B081F041A1B041A49A4
:1055B00004135504F9B81943F91082105324F41454
:1055C000810182130A0632022A40201C0902437F0D
:1055D000112DC0320904D0190B1305241610010532
:1055E00024011009010424020205240617010705FD
:1055F0008203081C100904B5320A2E070501024077
:10560000072A810711137D341408ED324C08233624
:10561000941381331B0839101AAF04B99019281A52
:08562000C51C1A41081AB90863
:040000050800018965
:00000001FF
