:020000040804EE
:10000000206E00203D0304081D300408712D0408F3
:10001000DD2F0408310B0408F15004080000000033
:100020000000000000000000000000007D02040845
:10003000690E040800000000D90204083D320408DB
:100040005703040857030408570304085703040818
:100050005703040857030408570304085703040808
:1000600057030408570304085703040857030408F8
:1000700057030408570304085703040857030408E8
:1000800057030408570304085703040857030408D8
:1000900057030408570304085703040857030408C8
:1000A00057030408570304085703040857030408B8
:1000B00057030408570304080533040857030408CA
:1000C0005703040857030408570304085703040898
:1000D0005703040857030408570304085703040888
:1000E0005703040857030408570304085703040878
:1000F0005703040857030408570304085703040868
:100100005703040857030408570304085703040857
:100110005703040857030408570304085703040847
:100120005703040857030408570304085703040837
:100130005703040857030408570304085703040827
:100140005703040857030408570304082130040820
:100150005703040857030408570304085703040807
:1001600057030408570304085703040857030408F7
:10017000570304085703040857030408000000004D
:10018000570304085703040800F002F800F067F86A
:100190000AA090E8000C82448344AAF10107DA45E2
:1001A00001D100F05CF8AFF2090EBAE80F0013F0CD
:1001B000010F18BFFB1A43F001031847286900001C
:1001C000486900000A444FF0000C10F8013B13F09E
:1001D000070408BF10F8014B1D1108BF10F8015BA0
:1001E000641E05D010F8016B641E01F8016BF9D193
:1001F00013F0080F1EBF10F8014BAD1C0C1B09D1EA
:100200006D1E58BF01F801CBFAD505E014F8016B5B
:1002100001F8016B6D1EF9D59142D6D370470000ED
:100220000023002400250026103A28BF78C1FBD8FF
:10023000520728BF30C148BF0B607047752900F0D6
:100240007B81782900F0B481732900F0A08300201D
:1002500070471FB506F09AFB1FBD10B510BD00F02A
:10026000EEFB1146FFF7F5FF04F05AFF00F00CFC1F
:1002700003B4FFF7F2FF03BC00F014FC2C4B196829
:100280000868B0E8F04F80F30988BFF36F8F4FF034
:10029000000080F3118870470000000008480068E3
:1002A000006880F308884FF0000080F3148862B67D
:1002B00061B6BFF34F8FBFF36F8F00DF00BF00BF8A
:1002C00008ED00E0DFF80C00016841F47001016006
:1002D000704700BF88ED00E0EFF30980BFF36F8F38
:1002E000134B1A681EF0100F08BF20ED108A20E98A
:1002F000F04F106009B44FF0500080F31188BFF345
:100300004F8FBFF36F8F05F013FE4FF0000080F3A7
:10031000118809BC19680868B0E8F04F1EF0100F8A
:1003200008BFB0EC108A80F30988BFF36F8F704765
:10033000BC000020EFF305807047000009488047AB
:1003400009480047FEE7FEE7FEE7FEE7FEE7FEE7B7
:10035000FEE7FEE7FEE7FEE704480549054A064BCF
:1003600070470000F5320408890104082068002065
:10037000206E0020206A0020206A002053EA020C30
:1003800000F069802DE9F04B4FF00006002B1FBFF5
:10039000B3FA83F503FA05F424FA05F65E4012BFBA
:1003A0001643B2FA82F502FA05F4C5F120051EBF24
:1003B00022FA05FC44EA0C04203556EA044C4FEAC4
:1003C000144418BF641C4FF000084FF0000990421D
:1003D00071EB030C39D3002919BFB1FA81F701FA87
:1003E00007F6B0FA80F700FA07F6C7F120071EBF3C
:1003F00020FA07FC46EA0C062037B6FBF4FCA7EB14
:100400000507103F07F01F0BCBF120060CFA0BFB82
:100410002CFA06F644BFB3460026202FA4BF5E4642
:100420004FF0000B5BEA060C08BF4FF0010B19EB15
:100430000B09ABFB027C48EB0608C01B06FB02CC99
:100440000BFB03CC71EB0C01C1E70B4602464146A6
:100450004846BDE8F08B13B54FF000004FF00001A7
:10046000AFF30080BDE81C40704700000FB41CB51E
:10047000084B06AA7B4469460090059800F05DFA97
:1004800004460020694600F06BFA20461CBC5DF86B
:1004900014FB0000E904000070B50446856900689B
:1004A000C10601D5302600E02026C00707D070BD68
:1004B000D4E9012130469047206A401C20626D1E1D
:1004C000F6D570BD70B5044685690078C00707D1C0
:1004D00070BDD4E9012120209047206A401C206291
:1004E0006D1EF6D570BD70B50C460546012A05D0C7
:1004F0002878800600D5EA69002302E0012305E0A0
:100500005B1C934202D2E05C0028F9D1A869E6188E
:10051000C01AA861286A184428622846FFF7BCFF61
:1005200004E0D5E9012114F8010B9047B442F8D357
:100530002846FFF7C7FF70BD2DE9F04106460024AD
:1005400010687529314616A510D0AFF30080002839
:1005500002DA404213A507E031688A0701D512A5E7
:1005600002E0490704D511A5012401E0AFF30080A2
:1005700000210A2206F1240709E0B0FBF2FCB0FBDF
:10058000F2F302FB1C00303078541846491C002856
:10059000F3D123462A463046BDE8F04100F06FB95A
:1005A000000000002D0000002B00000020000000D3
:1005B00070B504460D4621461068AFF300802188CF
:1005C000090502D50F4A7A4402E00E4A7A440E32F7
:1005D000002104F1240305E000F00F060009965DF8
:1005E0005E54491C0028F7D120780023000704D569
:1005F000702D02D009B1022311322046BDE87040AF
:1006000000F03DB9B26400002DE9F05F8946044670
:100610004FF0000ADFF874B1FB44C0F820A0204678
:10062000E1688847002874D0252806D0D4E9012144
:100630009047206A401C2062F1E700265F46204672
:10064000E16888472028054607DB312D05D2781957
:1006500010F8200C08B10643F1E7B00701D526F0E9
:100660000406C4F81CA00027C4F818A02A2D09D03D
:10067000284604F04EFD38B304EB8708303DC8F837
:10068000185019E059F8041B204604EB87029161C9
:10069000E1688847012F054618D1E069002820DA73
:1006A00026F020061DE0D8F8180000EB800005EBCE
:1006B00040003038C8F818002046E16888470546F1
:1006C00004F027FD0028EED1012F0AD02E2D08D1ED
:1006D0002046E16888477F1C0546022F46F0200629
:1006E000C4DBA069002803DA404246F00106A0619D
:1006F000F00701D026F010066C2D0BD0682D09D024
:100700004C2D39D06A2D35D0742D35D07A2D33D07B
:1007100016E038E0E1682F4620468847B842054693
:1007200009D16C2F26D04FF48060E1680643204643
:100730008847054604E06C2F1AD04FF480700643BA
:100740000DB3A5F14100192802D8203546F4006602
:100750004A462946204626604E46FFF76FFD80B187
:1007600001280BD0F61D26F0070000F1080956E716
:100770004020E4E78020D8E70020D6E706F104090E
:100780004DE7284652E7206ABDE8F09F88640000E4
:10079000032A40F2308010F0030C00F0158011F8AD
:1007A000013BBCF1020F624498BF11F801CB00F885
:1007B000013B38BF11F8013BA2F1040298BF00F8D9
:1007C00001CB38BF00F8013B11F0030300F0E380D8
:1007D000083AC0F0088051F8043B083A51F804CBBD
:1007E000A0E80810F5E7121D5CBF51F8043B40F883
:1007F000043BAFF30080D20724BF11F8013B11F88E
:1008000001CB48BF11F8012B24BF00F8013B00F8D1
:1008100001CB48BF00F8012B704702F0FF0343EA09
:10082000032242EA024200F0EAB84FF0000200B5AB
:10083000134694469646203922BFA0E80C50A0E803
:100840000C50B1F12001BFF4F7AF090728BFA0E8B1
:100850000C5048BF0CC05DF804EB890028BF40F87D
:10086000042B08BF704748BF20F8022B11F0804FBF
:1008700018BF00F8012B70477047704770472DE98B
:10088000F0470D4699469246044600F12408016857
:10089000880604D5E06921F01001216000E0012004
:1008A000A84201DD471B00E00027A1697A1902EB8D
:1008B0000900081AA0612078C00602D42046FFF77C
:1008C000EBFD002608E0D4E901211AF80600904764
:1008D000206A401C761C20624E45F4DB2078C0065E
:1008E0000AD52046FFF7D8FD06E0D4E901213020E3
:1008F0009047206A401C2062381EA7F10107F4DCF3
:1009000007E0D4E9012118F805009047206A401C4F
:100910002062281EA5F10105F3DC2046FFF7D2FD79
:100920002078000602D50220BDE8F0870120FBE711
:1009300001694A1C02610878704700B58FB0CDE9A3
:1009400001310021059105497944CDE90310114693
:100950006846FFF759FE0FB000BD0000E5FFFFFF3E
:100960000A6802F8010B0A60704710B5436913B1B9
:10097000AFF3008001E0FFF7B6FD012010BD127853
:1009800000F124010A7000224A700122EDE711688B
:100990004FF0FF32E9E710B5203AC0F00B80B1E824
:1009A0001850203AA0E81850B1E81850A0E81850A4
:1009B000BFF4F5AF5FEA027C24BFB1E81850A0E8AD
:1009C000185044BF18C918C0BDE810405FEA827CC7
:1009D00024BF51F8043B40F8043B08BF7047D207DE
:1009E00028BF31F8023B48BF11F8012B28BF20F87F
:1009F000023B48BF00F8012B70474FF0000204296A
:100A0000C0F0128010F0030C3FF411AFCCF1040CD5
:100A1000BCF1020F18BF00F8012BA8BF20F8022B71
:100A2000A1EB0C01FFF703BF5FEAC17C24BF00F814
:100A3000012B00F8012B48BF00F8012B70477546C9
:100A400000F02CF8AE4605006946534620F007003A
:100A5000854618B020B5FFF77FFCBDE820404FF079
:100A600000064FF000074FF000084FF0000B21F098
:100A70000701AC46ACE8C009ACE8C009ACE8C00965
:100A8000ACE8C0098D46704710B50446AFF300804E
:100A90002046BDE81040FFF7EBBB00000048704760
:100AA000BC67002001491820ABBEFEE7260002000B
:100AB00070470000154FDFF85880164D4AF6AA26F9
:100AC0006FF04009BC144FF47A7A3E606423092227
:100AD00011A10F4802F0FCF828B16423092211A1EA
:100AE0000B4802F0F5F8D8F80010C1F80090012288
:100AF0002146284600F0DEFD504600F021FC002291
:100B00002146284600F0D6FDDFE700000030004017
:100B10007802002000040240412066616C73650D7C
:100B20000A00000041206572726F0D0A000000008B
:100B3000FEE70020704700207047000010B500223B
:100B40000449054802F018FF0449034802F007FF72
:100B5000002010BDE40F002008030020E40700205F
:100B600010B504466423072207A1094802F0B0F833
:100B7000204602F035FA2146064802F0F0FE05480C
:100B800002F0C6FE002010BD6261636B310D0A00E9
:100B9000780200200803002000207047094A10B5A1
:100BA000D2F8BC22D2F814220AB1012010BD0A46A4
:100BB0000146044802F0E0FEBDE81040014802F0A2
:100BC00055BF00000803002070B54FF0FF3200232E
:100BD000094D0CE0C45C62400024D60702D085EACF
:100BE000520200E05208641C082CF6D35B1C8B42B6
:100BF000F0D3D04370BD00002083B8ED2DE9F04F55
:100C000095B0794802907B4D784879494AF6AA24F4
:100C100004900E462C6000F0DFFADFF8DC9109F159
:100C2000080A40B1DAF8080099F800100022C078EC
:100C300002F0B8FA85E000F02FFC4AF6AA21AB4694
:100C400029603146029800F011F9064600F024FCB4
:100C500000247BE004982044054600F055FB014643
:100C60000020B1F1006F08D0644A914205D05F4A7C
:100C7000914202D0624A914202D14FF4804010E08A
:100C8000604A914202D14FF480300AE05E4A9142BC
:100C900005D0554A914202D05C4A914201D14FF4AD
:100CA00000300844401B311B814200D20846221804
:100CB000B24200D9084620F003005FEA000802981B
:100CC00026D02044CDE900054FEA980700251BE017
:100CD000009850F825200198002300EB85010220A0
:100CE00000F09CFB28B100F089FB034604EB850271
:100CF00019E06420B5FBF0F100FB115018B94AF679
:100D0000AA20CBF800006D1CBD42E1D344441DE095
:100D1000025929460023022000F080FBA8B100F010
:100D20006DFB034622463AA104A8FFF79FFBDAF8C1
:100D3000080099F800100022C07802F033FA00F0A1
:100D400063FB012015B0BDE8F08F241DB44281D3B0
:100D500000F05AFB4AF6AA20CBF80000BFF34F8FF1
:100D6000BFF36F8F00203A4A00900099491C009110
:100D70009142FAD3BFF34F8FBFF36F8F3549009085
:100D8000009A521C00928A42FAD3BFF34F8FBFF3EE
:100D90006F8F0090401C00908842FBD3BFF34F8FB1
:100DA000BFF36F8F31460298FFF70EFF0390314675
:100DB0000498FFF709FF044627A0039904F05EFAA0
:100DC000214627A004F05AFA0398A04209D0DAF885
:100DD000080099F8001003AA007902F0E3F9FFF780
:100DE00069FE0020AEE70000000004080080000853
:100DF000FF7F030000300040080000200040000892
:100E000000C00008000001080000020800000608F9
:100E1000466C6173682070726F6772616D6D696E88
:100E200067206661696C6564206174206F66667313
:100E300065742030782530386C582C206572726FBC
:100E4000723A2030782530386C580D0A00000000C6
:100E5000404B4C0040420F006372635F6100000032
:100E60006372635F62000000704700002DE9F04F7D
:100E7000074606463C4645184FF0006B4FF4804944
:100E80004FF4003A49E0304600F03EFA01460020B7
:100E9000594508D0424A914205D0424A914202D077
:100EA000414A914201D148460FE0404A914202D165
:100EB0004FF4803009E03E4A914205D03D4A9142CC
:100EC00002D03D4A914200D1504601442846A942F1
:100ED00001D20B4600E0034600221046A3EB060CAD
:100EE0000AE000BF56F80080B8F1FF3F02D00122AF
:100EF0003418241D00F58050844502D9002AF1D011
:100F000006E02AB906E03068401C00D0341D361DCA
:100F10009E42F8D30E46A94201D2AE42B3D3BC42A0
:100F200036D0261F304600F0EFF901460020594523
:100F300008D01B4A914205D01A4A914202D01A4A5F
:100F4000914201D148460FE0184A914202D14FF434
:100F5000803009E0164A914205D0164A914202D0EB
:100F6000154A914200D150460844854200D2284695
:100F700000222146041F04E023685B1C0BD00022E2
:100F8000241FB44201D38442F6D3C81B042800D2E4
:100F90000420BDE8F08F521C082AF1D3211DF4E78C
:100FA000004000080080000800C0000800000108A0
:100FB00000000208000004080000060872B6FEE700
:100FC000002229B101291AD002291BD04FF4407206
:100FD0000E490B6823F440730B600B6813430B60DE
:100FE0000A6822F078020A600A68022303EBC00054
:100FF00002430A60086840F48030086070474FF48C
:101000008072E5E74FF40072E2E70000103C024016
:101010001348016889050FD5016821F4007101604A
:10102000016841F400610160016821F40061016020
:10103000016841F400710160016849050FD501683C
:1010400021F480610160016841F480510160016810
:1010500021F480510160016841F4806101607047B2
:10106000003C024008490A6822F440720A600A689B
:1010700042F004020A600A684FF4803343EA002019
:1010800002430A6070470000103C0240064A1368A1
:1010900023F44073136013681360136843F0010373
:1010A0001360017070470000103C0240094910B500
:1010B0000C6824F440740C600C6844F440740C60B8
:1010C0000C6844F001040C600260BFF36F8F436052
:1010D00010BD0000103C0240074A136823F440731F
:1010E0001360136843F480731360136843F00103C3
:1010F0001360018070470000103C0240074A1368EB
:1011000023F440731360136843F40073136013688F
:1011100043F001031360016070470000103C02407F
:1011200017490868C206174805D5C26942F010027F
:10113000C26110220A600A68920605D5C26942F0AF
:101140000802C26120220A600A68520605D5C269F7
:1011500042F00402C26140220A600A68120605D504
:10116000C26942F00202C26180220A600A689207E4
:1011700005D5C26942F02002C261022008607047B2
:101180000C3C02408C00002070B511490446002040
:10119000C86100F095FA06460E4D09E0601C07D0C4
:1011A00024B100F08DFA801BA04201D9032070BD4C
:1011B0002868C003F2D42868C00701D00120286045
:1011C000286810F0F200F2D0FFF7AAFF012070BDEE
:1011D0008C0000200C3C02402DE9F0410C460646F4
:1011E00000F05AF93444294D641EAE4200D22E4616
:1011F0002748844200D90446304600F085F8064668
:10120000204600F081F8074626B11FB13446DFF8CA
:10121000848034E000F0F8F80120BDE8F0811B483C
:1012200040422044B0F5603F08D2204600F03CF830
:10123000060003D000F0E8F83046EEE7B4F1006FA6
:1012400009D0444504D0AC4202D01348844204D1B2
:1012500004F5804413E0444611E01048844202D172
:1012600004F580340BE00E48844206D00848401C48
:10127000844202D00B48844203D104F50034BC42BE
:10128000CDD900F0C1F80020C7E7000000800008B9
:10129000FFFF03080040000800C00008000001082C
:1012A000000002080000060830B587B00025144A87
:1012B0002946059552F8213083421BD11048403011
:1012C00010F82140FF2C18D000F0E6F80D49F3206B
:1012D0000860022004900120CDE90240CDE90050D1
:1012E00005A9684600F03EF8044600F08DF8204657
:1012F00007B030BD491C0829DCDB0120F8E70000FD
:10130000986904080C3C024030B5A0F10061B1F5C9
:10131000002F11D2094C002104F1200554F821209E
:1013200055F821309042134403D3984201D210461D
:1013300030BD491C0829F1DB002030BD9869040844
:1013400070B5044600F0BCF90546601C02D00448A4
:101350000078044400F0B4F9401BA042FAD370BDF9
:10136000AC0000202DE9F047044622480F46017EDC
:1013700001290AD00121804601764CF250394846B5
:10138000FFF702FF020003D02FE00220BDE8F08744
:101390004FF0FF3038602068174D012801D0A66853
:1013A0001CE0207C6168FFF75DFE4846FFF7ECFE1D
:1013B0000246286820F00400286014E0217C3046B2
:1013C000FFF7FEFD4846FFF7DFFE0200286820F029
:1013D0007A00286001D03E6005E0761CD4E9021056
:1013E0000844B042EAD8FFF713FE002188F818102D
:1013F0001046CBE78C000020103C02400148C06939
:10140000704700008C0000200348016841F0004153
:101410000160002070470000103C02402DE9F047B9
:101420001B4E05461446307E1F468946012808D0CB
:10143000012030764CF250384046FFF7A5FE18B137
:1014400014E00220BDE8F0879DB1012D16D0022DD9
:1014500019D022463B464846FFF728FE4046FFF794
:1014600093FE0C490A6822F001020A6000213176DD
:10147000E8E7E1B24846FFF709FEEFE7A1B24846C8
:10148000FFF72AFEEAE721464846FFF737FEE5E781
:101490008C000020103C0240074900200A68002A06
:1014A00009DA054A054B0C3A1360054B13600968CD
:1014B000002900DA01207047103C024023016745F3
:1014C000AB89EFCD2DE9F84FDFF8BCA10022012553
:1014D00003264FF00F090AF1040BAAF1040E00BF16
:1014E0000B6805FA02F42340A34270D10F7907F08C
:1014F0000307012F01D0022F16D187684FEA420857
:1015000006FA08FC27EA0C07D1F80CC00CFA08FC14
:101510004CEA070CC0F808C04768A7430C79C4F32D
:10152000001494403C4344600C79E443A4070AD07F
:10153000C4684FEA420C06FA0CF7BC438F6807FAFE
:101540000CF72743C7600C7904F00304022C12D176
:10155000D40800EB840CDCF820405707FF0E09FA92
:1015600007F824EA0804D1F8108008FA07F848EAD6
:101570000408CCF8208004684FEA420C06FA0CF705
:10158000BC430F7907F0030707FA0CF727430760FE
:101590004C6814F4403F70D03C4C276847F48047B7
:1015A0002760246822F0030704F480440094384C38
:1015B00007EB040CDCF8084897074FEA177809FA9C
:1015C00008F7BC43334FB84202D1002724E054E06F
:1015D000314FB84201D101271EE0304FB84201D14E
:1015E000022719E02E4FB84201D1032714E02D4FF6
:1015F000B84201D104270FE02B4FB84201D1052793
:101600000AE02A4FB84201D1062705E0284FB84228
:1016100001D1072700E0082707FA08F72743CCF88D
:101620000878DAF800405746D1F804C09C435FEAD6
:10163000CC2C00D51C433C60DBF800405F46D1F861
:1016400004C09C435FEA8C2C00D51C433C60DEF850
:1016500000407746D1F804C09C435FEA8C3C00D53B
:101660001C433C60084F083F3C68D1F804C09C43D1
:101670005FEACC3C00D51C433C60521C102AFFF4AE
:101680002FAFBDE8F88F0000083C0140443802400D
:101690000030014000000240000402400008024007
:1016A000000C0240001002400014024000180240EA
:1016B000001C02400AB1816170470904FBE7000089
:1016C0000148806870470000AC00002070B504003D
:1016D00013D021684CF6CC400860216845F2555083
:1016E0000860D4E9000141602168A0688860FFF7C4
:1016F000E7FF054641F601060DE0012070BD00BF81
:10170000FFF7DEFF401BB04205D92068C0688007A4
:1017100001D0032070BD2068C0688007F0D1216827
:101720004AF6AA200860002070BD000002488168C7
:101730000278114481607047AC0000200B4810B55E
:10174000016841F400710160016841F48061016049
:10175000016841F480710160032000F09FF80F20C0
:1017600000F006F800F050F8002010BD003C0240E8
:1017700030B505461F4887B00024016841F00401D8
:101780000160006806A900F00400009001A800F0C4
:101790004DFE0498A8B100F06FFE40001649174AAC
:1017A000B0FBF1F11648491E026040F2E732C0E991
:1017B0000324C0E90114846101F0F8F8040003D0A7
:1017C00015E000F059FEE9E70D4801F031F9040099
:1017D0000DD11E2000F034F8102D07D2002229462A
:1017E0001E2000F03BF80748056000E0012407B028
:1017F000204630BD4038024040420F000008004003
:10180000C0020020B00000200C4882B0016841F402
:1018100080410160006800F4804000900748001F8C
:10182000016841F0805101600068002200F08050A2
:1018300000900F21901E02B000F010B84438024012
:10184000002809DB00F01F020121914040098000BF
:1018500000F1E020C0F8001170470000F0B40E4B1A
:101860001B680C46C3F30223C3F10705042D00D9FE
:101870000425191D072901D2002300E0DB1E0126E3
:1018800006FA05F1491E214099409E40761E1640F9
:101890003143F0BC03F02DBC0CED00E0064900F034
:1018A000070208684FF6FF03184040EA0220034A87
:1018B00010430860704700000CED00E00000FA05DE
:1018C00070470068416200207047F0B50368586AAD
:1018D00039B19C6A4FF4827600EB144400204D1E0F
:1018E0000AE040EA024098620FE006EB8007DF5909
:1018F000401C04EB1744C0B2A842F6D344EA0240AD
:101900004FF4807202EB810158500020F0BDD0F8F6
:10191000E00402F044BB01EBC10200EB8202D0F80C
:10192000E004126A02F095BA01EBC10200EB8202F8
:10193000D0F8E004D2F8602202F0E7BAD0F8E00470
:1019400002F02FBB0A0601F00F0101EBC10100EB11
:10195000810101D5143101E001F51571006803F032
:1019600015BA70B504460B0601F00F0000EBC0017C
:1019700004EB81014FF001024FF0000502D54A75DA
:10198000143103E081F8555201F51571087094F88F
:101990009404012808D084F89424206802F010FFF1
:1019A00084F89454002070BD022070BD70B50446C8
:1019B00001F00F002279904201D9012070BD0B0681
:1019C00001F00F0101EBC10104EB81014FF00102B5
:1019D0004FF0000502D54A75143103E081F85552E5
:1019E00001F515718D70087094F89404012808D0E1
:1019F00084F89424206803F055F884F89454002067
:101A000070BD022070BD01F00F0101EBC10100EBC0
:101A10008100D0F8680270472DE9F04104460F06B6
:101A200001F00F0000EBC00104EB81014FF0010653
:101A30004FF0000502D54E75143103E081F8555280
:101A400001F51571C2F30A0208708A600B714A78B9
:101A500002B14883022B00D14D7194F894040128FF
:101A600009D084F89464206802F0F8FD284684F8D0
:101A70009454BDE8F0810220FBE710B501F00F049B
:101A800004EBC40100EB8101C1E998230023C1F8F4
:101A9000683281F8553281F85442837901F5157125
:101AA000012B00D1CA618279006803F053F800204D
:101AB00010BD70B504460D4601F00F002179884233
:101AC00001D9012070BD29064FF000064FF0010238
:101AD00006D500EBC00104EB81014A75143107E023
:101AE00005EBC50104EB810181F8556201F5157123
:101AF0008A70087094F89404012807D084F894241C
:101B0000206802F0FBFF280702D007E0022070BD2A
:101B1000A17904F29C42206802F098FF84F8946452
:101B2000002070BD10B501F00F0404EBC40100EB00
:101B30008101C1E9082300238B6201234B7501F861
:101B4000144F8379012B00D1CA618279006803F0B8
:101B500001F8002010BD00002DE9FC5F0568044677
:101B6000284603F0AFF900287DD1206803F0D6F9AC
:101B7000002878D0D5F80808C0F30D20C4F8D404A4
:101B8000206803F0CBF9800704D52068416901F093
:101B900002014161206803F0C1F9C10604F29C40D2
:101BA000009034D52068816921F0100181612F6A8D
:101BB00007F00F0000EBC00004EB8006C7F34340C2
:101BC00006F51576022802D0062811D01AE047F64D
:101BD000F070074216D0C7F30A1217462846F1687C
:101BE00003F0A0F9F0683844F0607069384408E008
:101BF00008222846009903F095F97069C7F30A1185
:101C0000084470612068816941F010018161206899
:101C100003F084F900034FF0080B4FF0000A4FF077
:101C200001097CD50026206803F057F9074674E0C7
:101C3000F80770D0F1B2206803F068F98046C00759
:101C400007D005EB4611C1F8089B3146204601F04C
:101C5000EDF95FEA087024D505EB4611C1F808BB21
:101C60002068016C00E023E200EB46100191D0F8FF
:101C7000082BFB4B994205D9110403D54FF40041C1
:101C8000C0F8081B204600F0F6FAF5490198884292
:101C900007D9A079012804D120680121009A02F017
:101CA000D5FE5FEAC86004D505EB46111020C1F8E7
:101CB000080B5FEA88701DD56869000605D5D5F860
:101CC000040840F48061C5F8041806EBC60004EB74
:101CD000800090F8571200F51570012905D180F8A1
:101CE00003A0F1B2204600F0E9F905EB461102200D
:101CF000C1F8080B5FEA886004D505EB4610202187
:101D0000C0F8081B5FEA884005D505EB46104FF484
:101D10000051C0F8081B7F08761C002F88D120686E
:101D200003F0FCF840036ED5206803F0CFF80746B7
:101D3000002666E0F80762D0F1B2206803F0D4F81C
:101D40008046C00723D006F00F01D5F8342809FAE1
:101D500001F18A43C5F8342805EB4611C1F808990A
:101D6000A07901280FD106EBC60004EB8000D0E972
:101D700007211144016236B9606A20B92068012147
:101D8000009A02F063FEF1B22046FFF7C4FD5FEA5D
:101D9000087003D505EB4611C1F808B95FEAC860C1
:101DA00004D505EB46111020C1F808095FEA486028
:101DB00004D505EB46104021C0F808195FEA887089
:101DC00016D53146284603F052F806EBC60004EB60
:101DD0008000C17D1430012905D180F803A0F1B243
:101DE000204600F067F905EB46110220C1F808090A
:101DF0005FEA086003D53146204601F07DF97F088F
:101E0000761C002F96D1206803F088F8002811DA9C
:101E1000D5F8040820F00101C5F8041894F8CC04A2
:101E200001282BD0204600F00BFA2068416901F010
:101E300000414161206803F071F800050BD5D5F829
:101E40000808C00702D0204600F03EFA2068416929
:101E500001F400614161206803F060F8C00467D5B7
:101E6000D5F8040820F00100C5F804081021206806
:101E700002F0FDFF00214FF67F3220E084F8CCA471
:101E800000212046FFF71CFDCFE700BF05EB411006
:101E9000C0F80829D0F8003923F40013C0F800393D
:101EA000C0F8082BD0F8003B23F40013C0F8003B27
:101EB000D0F8003B43F00063C0F8003B491C207998
:101EC0008842E3D8D5F81C0840F00111C5F81C1869
:101ED000E07B002828460DD0D0F8840840F00B01A4
:101EE000C5F88418D5F8440840F00B012846C5F819
:101EF00044180DE0D0F8140842F22B010843C5F84D
:101F00001408D5F8100840F00B012846C5F8101841
:101F1000D0F8000820F4FE61C5F80018A179206807
:101F2000009A02F093FD2068416901F480514161FB
:101F3000206802F0F3FF800415D5206802F0CEFB84
:101F4000206802F0B2FFE07100F090FA0146E279F9
:101F5000206803F045F8204600F05CF920684169EC
:101F600001F400514161206802F0D8FF000707D555
:101F7000204600F069F92068416901F008014161DB
:101F8000206802F0CBFF000616D5A86920F080017A
:101F9000A96101260DE000BF06EBC60004EB80003E
:101FA00090F85702012803D1F1B22046FFF7CAFC8E
:101FB000761C2079B042EFD8206802F0AFFFC00253
:101FC0001FD501264F4614E005EB4610D0F8000956
:101FD00006EBC60104EB81010A7E012A08D1002824
:101FE00006DACF75F0B240F080012046FFF7AAFC78
:101FF000761C2079B042E7D82068416901F480114D
:102000004161206802F08AFF800234D501204A46EF
:1020100029E000BF05EB4011D1F8001B00EBC00325
:1020200004EB830393F85862012E1BD1002919DABF
:1020300094F8D464C1F3004106F001068E4211D138
:1020400083F85722A96941F08003AB6169690906E9
:1020500008D4D5F8040840F40070C5F8040805E079
:102060000A30544F401C21798142D3D820684169FD
:1020700001F400114161206802F050FF400007D5D3
:102080002046FFF744FC2068416901F0804141612E
:10209000206802F043FF40070AD5206845686807BA
:1020A00002D52046FFF74AFC206841682943416079
:1020B000BDE8FC9FD0F8E00401F0C5BFD0F8E00413
:1020C00001F0D5BFF8B5040005D094F89504266852
:1020D000002510B106E00120F8BD84F89454204694
:1020E00000F056F8032084F89504B6F1A04F00D113
:1020F000A571206802F0A4FC207C8DF8000094E813
:102100000F0002F0F9FA0226B8BB0021206802F0A5
:1021100028FF90BB002001270DE000BF00EBC001AD
:1021200004EB81014F750875C8850D76CD610D6290
:10213000401CC0B24D6221798142EFD8002011E0ED
:1021400000EBC00104EB810181F8555281F8540283
:1021500081F85852C1F85C52C1F86052401CC0B2BC
:10216000C1F8645221798142EAD8207C8DF80000C0
:1021700094E80F0002F0A6FB10B184F89564AAE77A
:10218000657484F89574206802F08EFB0020F8BD19
:1021900010B586B0044614216846FEF746FB206859
:1021A000B0F1A04F2FD119480021026842F001027E
:1021B0000260006800F0010005904FF4C0500090EC
:1021C0000220CDE90101032003900A200490694612
:1021D0000F48FFF777F90D48001D016841F08001B5
:1021E00001600A481430016841F4804101600068D0
:1021F000002200F48040059005214320FFF72EFBCC
:102200004320FFF71DFB06B010BD00003038024030
:102210000000024070B50446C079012570B1022863
:1022200001D0FEF7CBFE2946D4F8E00401F08EFF82
:10223000D4F8E004BDE8704001F042BF0025F2E7A9
:10224000D0F8E00401F06BBFD0F8E00401F071BFFA
:1022500010B5044690F8940401280AD0012084F8AF
:1022600094046174206802F0AAFE002084F89404AB
:1022700010BD022010BDD0F8E02400F29C411046B1
:1022800001F070BF10B50446006894F89414012959
:1022900009D0012184F89414C168490609D5617BED
:1022A000012902D005E0022010BD816B41F480318C
:1022B0008163206802F0B9FD206802F0E7FA00208F
:1022C00084F8940410BD000010B50446D0F8E00472
:1022D00001F08AFF2068D0F8001E41F00101C0F82B
:1022E000001EE07A002804D00248016841F006018F
:1022F000016010BD10ED00E02DE9F0470E4605002D
:1023000065D0DFF81481D8F80000F7B200F00700BC
:10231000B04207D288F80070D8F8000000F007003B
:10232000B04254D128683D4C810712D5400703D5EF
:10233000206840F4E05020602878000703D520682A
:1023400040F4604020602068A96820F0F000084355
:1023500020602878C0072DD03049686808390128E6
:1023600012D0022813D0032811D009688907002948
:102370002DDA216821F0030101432160FFF7A0F964
:10238000814641F2883A0EE009688903EFE709685F
:102390008901ECE7FFF794F9A0EB0901514502D957
:1023A0000320BDE8F0872068696800F00C00B0EBFE
:1023B000810FEFD1D8F80010404601F00701B1427B
:1023C00007D90770006800F00700B04201D0012073
:1023D000E7E72878400705D52068E96820F4E05051
:1023E000084320602878000706D52068296920F472
:1023F000604040EAC100206000F05EF82168084AB1
:10240000C1F30311515CC8400649086006480068E2
:10241000FFF7AEF90020C4E7003C02400838024054
:10242000646A0408B8000020B00000200F22026097
:102430000C4A136803F003034360136803F0F003CE
:102440008360136803F4E053C36012684FF4E053F1
:1024500003EAD20202610448006800F00700086045
:102460007047000008380240003C02400148006804
:1024700070470000B800002004480549006809685A
:10248000044AC1F38221515CC8407047B800002063
:1024900008380240746A040804480549006809685D
:1024A000044AC1F34231515CC8407047B800002073
:1024B00008380240746A0408154810B5006810F026
:1024C0000C02144813D04110042A0FD0082A0ED150
:1024D0000F4C241F2268236802F03F025B0207D5DD
:1024E0002068C0F38810A0FB010106E0084610BD7B
:1024F0002168C1F38811A1FB00010023FDF73EFF15
:102500002168C1F30141491C4900B0FBF1F010BD45
:10251000083802400024F4002DE9F84F04006ED082
:102520002078DFF84C93C007A9F104054AD009F1DF
:1025300004000168C1F38101012908D00068C0F3DB
:10254000810002280AD1D9F80000400206D5286887
:10255000800337D560680028E1D033E06068B0F5CB
:10256000803F10D0B0F5A02F286810D020F4803024
:102570002860286820F4802028606068A8B1FFF7F0
:102580009FF806460DE0286840F48030F4E740F4F8
:1025900080202860F7E700BFFFF792F8801B6428CF
:1025A00073D828688003F7D50CE0FFF789F8064652
:1025B00005E000BFFFF784F8801B6428F0D8286886
:1025C0008003F7D42078DFF8AC8280074FF0000A50
:1025D0003ED5A748001D016811F00C0F08D0006817
:1025E000C0F3810002280BD1D9F80000400207D4C3
:1025F0002868800716D5E068012800D112E033E191
:10260000E068B8B10120C8F80000FFF759F80646A5
:1026100005E000BFFFF754F8801B0228C0D82868E7
:102620008007F7D52868216920F0F80040EAC1004A
:1026300028600DE0C8F800A0FFF742F8064604E065
:10264000FFF73EF8801B02281FD828688007F7D4C0
:102650002078000722D5864F87486169703771B1AD
:1026600001210160FFF72CF8064604E0FFF728F887
:10267000801B022809D838688007F7D50EE0C0F81B
:1026800000A0FFF71DF8064605E082E0FFF718F806
:10269000801B02287DD838688007F7D4207840074F
:1026A00068D5DFF8CCB100270BF13C0BDBF800005C
:1026B000C0000BD4DBF8001041F08051CBF80010C3
:1026C000DBF80000012700F0805000906B4E30686E
:1026D000C00510D4306840F480703060FEF7F0FF21
:1026E000009005E0FEF7ECFF0099401A022850D850
:1026F0003068C005F6D55E4EA0686C3601280FD054
:102700000528306810D020F001003060306820F0DB
:1027100004003060A068B8B1FEF7D2FF00900FE06F
:10272000306840F00100F4E740F004003060F7E763
:10273000FEF7C6FF0099411A41F28830814266D8FF
:1027400030688007F4D50EE0FEF7BAFF009007E08E
:10275000FEF7B6FF0099411A41F28830814256D8FF
:1027600030688007F4D42FB1DBF8001021F08051DD
:10277000CBF80010A069C8B33D49091D0968C1F331
:10278000810102294AD00228504607D0C8F86000CB
:1027900000E03CE0FEF794FF04463BE04746C8F803
:1027A0006000FEF78DFF064605E000BFFEF788FFDC
:1027B000801B02282BD828688001F7D4D4E90701B0
:1027C0000843A16A2E4A490802EB0141626A41EAC4
:1027D0008211084394F82C1040EA0161C9F80010F6
:1027E00001203866FEF76CFF044606E03EE000BFBD
:1027F000FEF766FF001B022809D828688001F7D57C
:1028000034E000BFFEF75CFF001B022802D9032062
:10281000BDE8F88F28688001F4D427E00128F7D0BC
:10282000D9F80000E26900F4800191421CD1226ACB
:1028300000F03F01914217D147F6C071626A014032
:10284000B1EB821F10D1A26A4FF0FF3300F4403188
:1028500003EB5202B1EB024F06D194F82C1000F0BA
:102860007060B0EB016F01D00120D1E70020CFE70D
:102870000438024000004742800E4742007000408A
:102880000000FFFF70B5040009D0606A002540B168
:1028900025616561A56294F8510040B10CE001200A
:1028A00070BD6068B0F5827FF4D0E561F2E784F82E
:1028B0005050204600F044F8022084F8510020686F
:1028C000016821F040010160A088218900F4827034
:1028D00001F404410843A18901F400610843217C0B
:1028E00001F002010843217D01F001010843218B21
:1028F00001F400710843217F01F03801084394F886
:10290000201001F080010843218D01F4005108439B
:1029100021680860A069042101EA104094F824109D
:1029200001F010010843216848602068C16921F462
:102930000061C1616565012084F85100002070BD0F
:1029400010B586B0044614216846FDF76EFF1349A2
:102950002068884220D112480021026842F4805247
:102960000260006800F4805005900D481438026839
:1029700042F001020260006800F001000590E020D2
:1029800000900220CDE9010103200390052004906E
:1029900069460448FEF796FD06B010BD00300140C0
:1029A00044380240000002407047704710B50400F0
:1029B00003D094F83D0010B107E0012010BD0020C5
:1029C00084F83C00204600F01FF8022084F83D0007
:1029D000211D206800F09CFC012084F8460084F84A
:1029E0003E0084F83F0084F8400084F8410084F8F9
:1029F000420084F8430084F8440084F8450084F8D9
:102A00003D00002010BD000008B50068064988425E
:102A100008D10648016841F480710160006800F443
:102A20008070009008BD0000002000404038024047
:102A300090F83D10012901D001207047022180F853
:102A40003D100168CA6842F00102CA60006811497D
:102A5000884214D0B0F1804F11D00F4988420ED077
:102A60000E4988420BD00E49884208D00D49884251
:102A700005D00D49884202D00C49884204D18168B2
:102A800001F00701062903D0016841F0010101604E
:102A90000020704700000140000400400008004092
:102AA000000C0040000401400040014000180040BC
:102AB00070472DE9F04104460068C66805694FF08B
:102AC0000007A90713D5B10711D5F91E016101202F
:102AD0002077206880698007204602D0FFF7E8FF52
:102AE00004E000F07EF8204600F07CF827776807C5
:102AF00016D5700714D521686FF004000861022014
:102B000020772068806910F4407F204602D0FFF7CC
:102B1000CFFF04E000F065F8204600F063F8277767
:102B2000280715D5300713D521686FF00800086114
:102B3000042020772068C0698007204602D0FFF774
:102B4000B7FF04E000F04DF8204600F04BF827777F
:102B5000E80616D5F00614D521686FF0100008615C
:102B6000082020772068C06910F4407F204602D0FA
:102B7000FFF79EFF04E000F034F8204600F032F842
:102B80002777E80708D0F00706D021686FF001002A
:102B90000861204600F028F8280608D5300606D53A
:102BA00021686FF0800008612046FFF7FDFE68068F
:102BB00008D5700606D521686FF0400008612046F0
:102BC00000F01CF8A8060AD5B00608D521686FF0F9
:102BD000200008612046BDE8F041FFF7E6BEBDE8F1
:102BE000F08170477047000000680349884201D1B6
:102BF000FEF79CBD7047000000080040704770B5AC
:102C0000040004D094F84100002510B106E0012032
:102C100070BD84F84050204600F024F8242084F849
:102C200041002068C16821F40051C160204600F0D5
:102C3000FFFB2068016921F490410161206841692E
:102C400021F02A0141612068C16841F40051C1604E
:102C50006564202084F8410084F842006563002008
:102C600070BD000010B586B0044614216846FDF71B
:102C7000DCFD14492068884221D1134800210268F4
:102C800042F010020260006800F0100005900E484B
:102C90001438026842F001020260006800F001008E
:102CA00005904FF4C06000900220CDE9010103209F
:102CB00003900720049069460448FEF703FC06B021
:102CC00010BD0000001001404438024000000240E6
:102CD0002DE9F843044690F84100984616460D4603
:102CE000202802D00220BDE8F88385B17EB1002003
:102CF0006064212084F84100FEF7E2FCA68481464E
:102D0000E684A0682027B0F5805F02D003E00120B0
:102D1000E9E7206910B12E4600250EE000260CE000
:102D20008021204600F00AFCA8B9C6B116F8010BB4
:102D300021684860E08C401EE084E08C4B464FF0F8
:102D40000002CDF800800028EAD14FF04001204673
:102D500000F0F4FB40B184F841700320C3E735F87C
:102D6000020BC0F30800E3E784F841700020BAE7E3
:102D7000FEE70000F0B500230A24302537261F4661
:102D800011E000BFB4EB107F02D905EB107C01E02D
:102D900006EB107C01F813C001EB430C00015B1C37
:102DA0008CF80170DBB29342ECD3F0BD0B48C168E4
:102DB000C907FCD1C1688907FCD445F255510160AF
:102DC000C168C907FCD14160C2689207FCD4816028
:102DD0004AF6AA21016000BFFDE700000030004074
:102DE00010B50B4A00210B4802F002FA0A4C084ABF
:102DF000002120602432094802F0FAF9044A606098
:102E000048320021064802F0F3F9A06010BD00002E
:102E1000F8690408EB3104081C0000201132040892
:102E2000F931040870B586B014216846FDF7FDFC41
:102E30001A480024016841F080010160016801F036
:102E400080010591016841F001010160016801F014
:102E500001010591016841F0020101600068104E16
:102E600000F002004FF480550590002229463046BC
:102E7000FEF720FC1020CDE90004694609480294C1
:102E8000FEF720FB01200095CDE90104694630469C
:102E90000394FEF717FB06B070BD00003038024007
:102EA0000004024000000240094810B507490160D3
:102EB0000621416040F6FF718160FEF707FC0028A3
:102EC00003D0BDE81040FEF779B810BD00300040D7
:102ED000CC010020104810B50E4901604FF48271FA
:102EE0004160002102228160C0E903120122426197
:102EF0005202C0E906210162416281620A21C16277
:102F0000FFF7C0FC002803D0BDE81040FEF756B81C
:102F100010BD000000300140D80100200B4810B562
:102F20000949016042F2CF01416000210922C0E954
:102F3000021201618161FFF739FD002803D0BDE86D
:102F40001040FEF73BB810BD0020004030020020CA
:102F50000C4810B50A4901604FF4E131416000218D
:102F600081600C22C160C0E904128161C161FFF778
:102F700046FE002803D0BDE81040FEF71FB810BD84
:102F8000001001407802002010B500220F491048BF
:102F900000F03AFF08B1FEF711F80E490C4801F0B5
:102FA0004FF908B1FEF70AF80B49094800F0CCFCCC
:102FB00008B1FEF703F8064801F0C6F9002803D06F
:102FC000BDE81040FDF7FABF10BD0000280000204A
:102FD000080300209401002078000020FEE7000094
:102FE00070B50178A52915D141785A2912D10A4C1A
:102FF0008078E17988420DD1A4F108052079E9793A
:10300000002200F0CFF82978A078002200F0CAF85A
:10301000FFF7CCFE70BD000010000020FEE70000AE
:103020000148FEF799BD0000041A00202DE9F04187
:1030300003680D4604461E6C03EB4511D1F8080BDE
:1030400094F806E04FF400474FF0200C04F29C4245
:10305000BEF1010F09D0DFF898E0764539D10204BE
:1030600032D500BFC1F8087B3FE0224B5FEA007E0B
:1030700004D59E4239D90004F4D436E05FEA806E6C
:1030800002D5C1F808CB30E010F0280F2DD19E42B8
:1030900001D90004E6D405EBC50004EB8000D1F8AB
:1030A000101BD0F87432C1F31201591AC0F868121B
:1030B00000F51570ADB903691BB1C2681144C16058
:1030C0000FE0012120680AE080060AD5C1F808CB8C
:1030D00007E035B9D4F8640218B90021184601F0A8
:1030E000B5FCE9B22046FEF71FFC0020BDE8F081E8
:1030F0000A31544F0A30544F2DE9F84F0E4601EB78
:10310000C60100EB810481460568D4E90910143436
:10311000884202D90120BDE8F88F081AA1688142CF
:1031200000D20846C01C870805EB46181BE000BF0C
:10313000A0EB010AA068504500D282460AF10300C4
:10314000870899F8060000901FFA8AF3F2B2284621
:10315000E16801F0B9FFE16801EB0A00E060616934
:1031600001EB0A006061D8F8180980B2B84205D3B3
:10317000D4E90401814201D20028D9D1D4E9040163
:10318000884208D806F00F0101208840D5F834188D
:103190008143C5F834180020BDE70178407841EA42
:1031A000002070471FB50B46A52404218DF8004070
:1031B0005A248DF801408DF802008DF8033062B179
:1031C00010788DF8040050788DF8050090788DF80F
:1031D0000600D0788DF8070008216846FDF7DEFC70
:1031E000002800D0012004B010BDFFF7CDFE012063
:1031F00001F0C2FFFBE70000044C4AF6AA2641F2A8
:1032000088352660284601F0B7FFFAE70030004015
:10321000094C4FF48055012229462046FEF74AFA10
:10322000642001F0A9FF002229462046FEF742FA59
:10323000642001F0A1FFEEE70004024010B54FF05A
:10324000E020006903F0ECF9012803D0BDE810404C
:1032500002F01ABF10BD000030B593B030216846AF
:10326000FDF7E3FA14210CA8FDF7DFFA1F4800254B
:10327000016841F080510160006800F080501190B9
:103280001B48016841F4804101600068022400F499
:1032900080401190092000904FF48030019001206F
:1032A000CDE9050480050790082008904FF4A87028
:1032B000CDE9090407200B906846FFF72DF908B106
:1032C00072B6FEE70CA90F2081E831004FF4A05040
:1032D0000F904FF48050109005210CA8FFF70CF8C8
:1032E000002801D072B6FEE713B030BD403802406E
:1032F000007000400248016841F4700101607047AD
:1033000088ED00E00148FFF7D4BB0000C0020020B8
:10331000F0B50268274B284D284E294F294C4FF015
:10332000804C984209D0604507D0A84205D0B042F1
:1033300003D0B84201D0A04204D122F0700E4A68F6
:1033400042EA0E0298421BD0604519D0A84217D01D
:10335000B04215D0B84213D0A04211D01A4DA842A5
:103360000ED01A4DA8420BD0194DA84208D0194DC5
:10337000A84205D0184DA84202D0184DA84203D14A
:1033800022F44075CA682A434D6922F080022A431C
:103390008D68C5620D688562984201D0A04201D156
:1033A00009690163016841F0040101600121416183
:1033B0000260F0BD00000140000400400008004031
:1033C000000C004000040140004001400044014066
:1033D0000048014000180040001C00400020004050
:1033E00001680C3151E8002F22F4907241E800236B
:1033F000002BF5D10168143151E8002F22F00102B1
:1034000041E80023002BF5D1016B012909D10168A6
:103410000C3151E8002F22F0100241E80023002B6C
:10342000F5D1202180F8421000210163704700008F
:1034300070B5044600680169E26821F44051114307
:1034400001612169A068E269084361691143084389
:103450002168CA6849F20C639A430243CA60206833
:103460004169A26921F440711143416131492068E9
:10347000884202D03049884202D1FFF70DF801E0BE
:10348000FEF7FAFFE2690023192164253226B2F51E
:10349000004F626828D0A0FB0101930F9200FCF757
:1034A0006DFF0146B0FBF5F06FF01802504301EBE1
:1034B000800006EB0010B0FBF5F000F0F002B1FB6D
:1034C000F5F002EB0012B1FBF5F06FF01803584372
:1034D00001EB800006EB0010B0FBF5F000F00F00F0
:1034E00021681044886070BDA0FB010192185B4107
:1034F000FCF744FF0146B0FBF5F00201B1FBF5F02B
:103500006FF01803584301EB800006EBC000B0FBDE
:10351000F5F000F0F80002EB4002B1FBF5F0584383
:1035200001EB800006EBC000B0FBF5F000F00700F7
:10353000D6E7000000100140001401402DE9F843D7
:10354000984617460D460446089E24E0701C22D07B
:10355000FEF7B6F8A0EB0800B0421AD8CEB120684A
:10356000C168490717D5802D15D0402D13D00168AB
:10357000C94309070FD40168002540680090204620
:10358000FFF72EFF0820606484F840500120BDE85A
:10359000F8830320FBE72068006835EA000004D0C8
:1035A0000020B842D2D00020F1E70120F9E72DE950
:1035B000F0410C46D0F8D412D0F8C82200EB8101BB
:1035C000D1F8C01229B304F00F0606EB860300EB16
:1035D000830500276B694BB106EBC60602EB86023A
:1035E000D269B3FBF2F602FB1632A2B1C1F8147233
:1035F000D0F8D42200EB8200D0F8C40203692BB1CA
:10360000D1F80802224601F5047198470020BDE870
:10361000F0810320FBE700231A4621466F6100F08A
:10362000F0FDF3E770B50546D0F8D40205EB800055
:10363000D0F8C04294B1284600F0C2FCC4F80C0295
:10364000D5F8D412D4F8040205EB8101D1F8C412E4
:10365000CA6804F503719047002070BD032070BD57
:1036600070B5234D0446297800F0EAFB287800263F
:1036700000F00F0000EB800004EB800080F8236076
:103680006978204600F0DCFB687800F00F0000EB62
:10369000800004EB800080F86361A978204600F088
:1036A000CFFBA87800F00F0000EB800004EB800057
:1036B00080F82360C661D4F8D40204EB8000D0F80F
:1036C000C01299B1D0F8C40240688047D4F8D4023F
:1036D00004EB8000D0F8C00200F0BAFFD4F8D402A6
:1036E00004EB8000C0F8C062C4F8BC62002070BD6A
:1036F0004001002010B5D0F8D41200EB8100D0F8C2
:10370000C04284B1D0F8C41259B194F80002FF2825
:1037100007D08B6894F8012221469847FF2084F84F
:103720000002002010BD032010BD00000A2101800E
:10373000004870474401002070B5064682210C48BD
:1037400000F001FB05460121094800F0FCFA04469F
:103750008121074800F0F7FA0DB11021A97140212D
:1037600004B1A18000B1818043203080004870BD49
:103770005001002070B5064682210D4800F0E3FAA2
:10378000054601210A4800F0DEFA04468121084876
:1037900000F0D9FA0DB11021A9714FF4007104B1F4
:1037A000A18000B1818043203080014870BD0000BD
:1037B0005001002070B5064682210C4800F0C3FA83
:1037C00005460121094800F0BEFA04468121074858
:1037D00000F0B9FA0DB11021A971402104B1A18006
:1037E00000B1818043203080004870BD500100202E
:1037F0002DE9F04704464FF40775284600F02AFFEC
:1038000006004FF0000865D02946FDF70EF8D4F801
:10381000D4023E4D04EB80004FF01009C0F8C062A6
:10382000C4F8BC62207C4FF4007A0127E8B340233F
:1038300002222978204600F02EFC2878402300F050
:103840000F0000EB800004EB800080F82370022260
:103850006978204600F01FFC6878082300F00F000C
:1038600000EB800004EB8000032280F86371A978EC
:10387000204601F00F0101EB810104EB8101C1F849
:103880001C90A97800F007FCA87800F00F0000EB6E
:10389000800004EB800080F82370C6F80482D4F81E
:1038A000D402474604EB800000E01BE0D0F8C402DD
:1038B00006F50176006880473761776132687AB132
:1038C000207C00B340236978204600F0F0FB002004
:1038D000BDE8F087D4F8D41204EB8101C1F8C082AE
:1038E0000220F5E7534602222978204600F0D3FB58
:1038F0002878534600F00F0000EB800004EB8000B6
:1039000080F82370A3E75346DDE700004001002064
:1039100010B5D0F8D41200EB8101D1F8C01259B122
:10392000027C084C002AD1F8042207D04023617899
:1039300000F0BDFB002010BD032010BD4FF400734C
:10394000F5E700004001002039B1D0F8D42200EBA7
:103950008200C0F8C4120020704703207047D0F8DE
:10396000D42200EB8200D0F8C00218B1C0F80412D3
:103970000020704703207047D0F8D43200EB83005A
:10398000D0F8C00228B1C0F81022C0F808120020F8
:103990007047032070472DE9FC410646D0F8D40259
:1039A0000C4606EB80000021D0F8C0728DF80010A4
:1039B000ADF804100D4637B1217811F060022FD018
:1039C000202A4BD102E00320BDE8FC81E288F2B15D
:1039D00009060DD5D0F8C40263783946D0F808C07E
:1039E0001846E047E288072A00D9072239462DE029
:1039F000607887F80002E088402800D34020C2B2F7
:103A000087F801223946304600F081F82BE0D0F8E3
:103A1000C40263780022866821461846B04722E037
:103A2000607830B101281ED00A2809D00B2815D1A2
:103A300010E096F89C02032810D1022201A905E0AB
:103A400096F89C02032809D101226946304600F00D
:103A50007AF808E096F89C02032804D02146304604
:103A600000F04AF803252846AEE7000010B5D0F86C
:103A7000D41200EB8101D1F8C02201211AB1D2F891
:103A8000143213B116E0032010BD0121C2F8141244
:103A90000949D2F81032097801F00F0404EB8404CC
:103AA00000EB84046361D2F81032D2F8082200F0EF
:103AB000A8FB0021084610BD4001002010B5D0F839
:103AC000B82200245268904700B10324204610BD5C
:103AD0000020704700207047134610B50A460021A9
:103AE00000F0E5FA002010BD134610B50A4600218B
:103AF00000F087FB002010BD10B50446802100F0C7
:103B000061FB2046BDE81040002100F05BBB10B512
:103B10000323C0F89432C0F85421C0F8582113464A
:103B2000C0F864110A46002100F0C1FA002010BD5F
:103B300010B50521C0F8941200231A46194600F06A
:103B4000B6FA002010BD10B50223C0F894324261CD
:103B50008261134641620A46002100F052FB0020B8
:103B600010BD10B50421C0F8941200231A4619465E
:103B700000F047FB002010BD10B50A46024903A023
:103B800000F00FF9004810BDE40500204344432035
:103B9000436F6E6669670000122008800048704716
:103BA0004800002010B50A46024903A000F0F9F8C9
:103BB000004810BDE405002043444320496E74656D
:103BC0007266616365000000042008800048704749
:103BD0004400002010B50A46024903A000F0E1F8B5
:103BE000004810BDE405002053544D6963726F65B1
:103BF0006C656374726F6E696373000010B50A467A
:103C0000024903A000F0CDF8004810BDE4050020F3
:103C100053544D3332205669727475616C20436F72
:103C20006D506F727400000010B51A2008800A48A9
:103C30000168001D0468001D0068081809D00822EA
:103C40000649FFF797F80549042210312046FFF78F
:103C500091F80248801E10BD107AFF1F5E00002000
:103C6000F8B504460020ADF8000048880D46010A6A
:103C700008295FD2DFE801F05E0409175E5E3C456B
:103C8000D4F8B412207C0A6819E0207C02260028AF
:103C9000D4F8B80205D0C16A684688470146467024
:103CA00039E0816AF8E7C0B2062843D2DFE800F0C5
:103CB000030A1014181CD4F8B402426805E06946DF
:103CC00090471CE0D4F8B402826892B3207CF6E7F7
:103CD000D4F8B402C268F8E7D4F8B4020269F4E791
:103CE000D4F8B4024269F0E7D4F8B4028269ECE790
:103CF000207CF0B9D4F8B802416B68468847014689
:103D000009E0207CA8B9D4F8B802016B684688475E
:103D1000014607204870EA888AB1BDF8000040B12A
:103D2000824200D90246ADF800202046FFF70BFF83
:103D3000F8BDFFE729462046FFF7DEFEF8E72046FC
:103D4000FFF70FFFF4E778B50E46428801780025AB
:103D500004468A4212D9ADF800100AE0694600F024
:103D600019F84178052904D181780546B14205D07A
:103D700000256188BDF800209142EFD8284678BD23
:103D80000146002002E0401CC0B2491C0A78002A0B
:103D9000F9D170470A8803781A440A8001780844E8
:103DA000704770B516460D46002820D00446FFF730
:103DB000E7FF022101EB40014FF40070814204D87B
:103DC0002046FFF7DDFF4000801C308030782870EF
:103DD000032068700220002206E02954401CC0B273
:103DE0002A54401CC0B2641C21780029F5D170BD52
:103DF00001004FF0000004D0012901D0022901D0B8
:103E0000032070470120704778B10023C0F8B83212
:103E1000C0F8C432C0F8D03209B1C0F8B4120121E0
:103E200080F89C12027000F0CFB80320704710B5E4
:103E3000D0F8C802FDF7BAFDBDE81040FFF7D8BFC3
:103E400010B5D0F8C802FDF78CFDBDE81040FFF7B3
:103E5000CFBF70B50446002521B194F89C02032819
:103E600046D050E0D4F8941204F11400022939D15C
:103E7000818942688A420AD9511A4160828901695E
:103E80001144016142682046FFF72EFE0FE0914287
:103E900014D10068884211D3D4F8981288420DD208
:103EA000002211462046FFF71FFEC4F89852002357
:103EB0001A461946204600F0FAF813E094F89C02DE
:103EC000032808D1D4F8B802C16821B1C4F8D4528B
:103ED000C168204688478021204600F073F92046BB
:103EE000FFF726FE94F8A00268B184F8A0520AE019
:103EF000D4F8B802426932B1C4F8D45242692046BB
:103F00009047002800D1002070BD10B50446002263
:103F100021B194F89C02032834D03EE0D4F89412E6
:103F200004F5AA70032938D1818943688B420ED9E0
:103F3000591A41608289016911440161426880898E
:103F4000824200D802462046FFF7C6FD25E094F8DD
:103F5000AA0210F01F0003D0012802D0022800D0CE
:103F6000002294F89C02032808D1D4F8B802016911
:103F700021B1C4F8D4220169204688472046FFF7C2
:103F8000F0FD0AE0D4F8B802836933B1C4F8D42252
:103F9000826920469047002800D1002010BD0020F3
:103FA000704710B50024012180F89C12D0F8B82287
:103FB00022B152680179904700B10324204610BD18
:103FC000D0F8C802FDF71FBD10B5017839BB1549FF
:103FD0000222C1F8E004C0F8C8124FF0A040086007
:103FE00004200871CA71002088714A728872C872F0
:103FF00008738873C8730846FEF764F808B1FCF7C5
:10400000DDFF80210748FDF75CFC402200210548C8
:10401000FDF75BFC802201210248FDF756FC0020E1
:1040200010BD0000041A00200A0601F07F01D0F83C
:10403000C80201EBC10100EB810001D5807D704712
:1040400090F85602704710B5D0F8D42200EB8202E7
:10405000D2F8B82222B190F89C32032B02D004E0AF
:10406000032010BD126A02B19047002010BD10B5A8
:10407000D0F8D42200EB8202D2F8B82222B190F814
:104080009C32032B02D004E0032010BD526A02B11F
:104090009047002010BD10B51C461346D0F8C8024A
:1040A0002246FDF7B9FCBDE81040FFF7A1BE10B5F0
:1040B000D0F8C802FDF7E1FCBDE81040FFF798BE5C
:1040C0002DE9F04100260125044680F89C52C4F8F1
:1040D00094626660C4F8A46280F8A062D0F8B80266
:1040E00030B1426822B100212046904700B103263A
:1040F0000022402311462046FFF7CDFF402784F8D9
:104100006351A4F860713B46002280212046FFF7EE
:10411000C2FF84F8235027843046BDE8F08190F830
:104120009C12042903D190F89D1280F89C12002063
:10413000704710B590F89C12032905D1D0F8B81239
:1041400011B1C96901B18847002010BD0174002078
:10415000704710B5D0F8C802FEF77AF8BDE81040F5
:10416000FFF746BE70B5044600F2AA20054600F0EF
:1041700051F80120C4F89402B4F8B002C4F89802CF
:1041800094F8AA0210F01F010AD001290ED00229CA
:1041900012D000F080012046BDE8704000F012B857
:1041A00029462046BDE8704000F0D0B82946204698
:1041B000BDE8704000F013BA29462046BDE87040C3
:1041C00000F05AB910B5D0F8C802FDF772FCBDE88E
:1041D0001040FFF70DBE10B5D0F8C802FEF752F838
:1041E000BDE81040FFF704BE90F89C12042903D0EC
:1041F00090F89C1280F89D12042180F89C120020F7
:10420000704710B5D0F8C802FDF78CFCBDE810402F
:10421000FFF7EEBD70B5054611F8010B2870087860
:1042200068704C1C2046FEF7B8FF6880A41C20462E
:10423000FEF7B3FFA880A01CFEF7AFFFE88070BDBB
:1042400038B504460020ADF80000A1B1C4F8B8129A
:10425000D4F8D40204EB8000D0F8B802C16A19B1D6
:1042600068468847C4F8D002D4F8D802401CC4F885
:10427000D802002038BD032038BD02460020D2F805
:10428000B832002B02D01B68104618477047000058
:104290002DE9F04188462B4E89780025044631707F
:1042A000012906D941462046FFF726FC0320BDE838
:1042B000F08194F89C02022702280CD003281DD01C
:1042C00041462046FFF718FC31782046FFF7F6FB01
:1042D00003252846EBE789B320466160FFF7CDFF51
:1042E000050004D041462046FFF706FC1DE02046AD
:1042F000FFF737FC032084F89C02EAE7C1B160684D
:1043000088421BD0C1B22046FFF7D8FB3178204647
:104310006160FFF7B2FF050010D041462046FFF76D
:10432000EBFB21792046FFF7C9FB84F89C72D0E7AC
:1043300084F89C7220466160FFF7C0FB2046FFF7BF
:1043400010FCC6E73C010020FFF745BF2DE9F04116
:104350000A78002512F060020CD0202A01D0402AF1
:104360007DD1D0F8D42200EB8202D2F8B822926834
:10437000904731E04B78002201260A2B6FD2DFE80C
:1043800003F041666E586E08056E2D29FFF768FC34
:1043900067E004468888D8B9C888C8B948888028A2
:1043A00016D200F07F0794F89C02032810D084F8FE
:1043B0009E7239462046FFF7CCFE2046FFF7D1FB20
:1043C0001FB1022084F89C024BE084F89C6248E014
:1043D000204644E0FFF75CFF054642E0CB88012B16
:1043E0003DD190F89C32012B04D0022B02D0032B3C
:1043F00035D104E08260012200F1080116E00122BB
:10440000011D13E090F89C22012A03D0022A01D05A
:10441000032A24D1CA88022A21D1C660D0F8A41266
:1044200009B10321C160022200F10C01FFF78BFBEF
:1044300017E04A88012A02D0022A03D00FE0C0F810
:10444000A46216E08988090A80F8A01211E090F8A9
:104450009C32012B08D0022B06D0032B04D0FFF78F
:104460004BFB2846BDE8F08149880129F9D1C0F805
:10447000A422FFF776FBF4E72DE9F0410546087822
:104480000C790E464FF0000810F060000BD0202889
:1044900001D040286BD121462846FFF719FBFF28A1
:1044A00000D0D8B398E07078C8B3012824D003288E
:1044B0005DD195F89C02022802D0032857D10CE068
:1044C000002C54D0802C52D021462846FFF77AFE8B
:1044D00080212846FFF776FE7EE0708840B93CB127
:1044E000802C05D0C88818B921462846FFF76AFEF7
:1044F0002846FFF736FB6FE095F89C020228DFD0D4
:10450000032866D1708888BB600603D02146284600
:10451000FFF78DFC2846FFF724FBBCE700E00AE02C
:10452000C5F8D402D5F8B8028268FAB131462846F7
:104530009047804650E095F89C020027022802D060
:10454000032846D114E00CB1802C42D1200604F09F
:104550007F0000EB800005EB800101D5143101E004
:1045600001F5AA71022201F80E7F2EE034E030E05E
:10457000200604F00F0000EB800005EB80000AD558
:1045800090F8230028B304F07F0000EB800005EBD7
:10459000800614360AE090F86301D0B104F07F0081
:1045A00000EB800005EB800606F5AA764CB1802C66
:1045B00007D021462846FFF737FD10B10120B07320
:1045C00000E0B773022206F10E012846FFF7BBFA9E
:1045D00002E02846FFF790FA4046BDE8F08170B54A
:1045E0000546087800240E4610F0600003D020280D
:1045F00001D0402827D195F89C02012803D0022839
:1046000001D003281FD1B088C1B201291AD8C1B284
:104610002846FFF75FFAFF280CD058B9D5F8B81232
:104620008A683AB1C5F8D4028A683146284690476C
:10463000044600E00324F088204307D12846FFF712
:1046400090FA03E031462846FFF756FA204670BD3F
:104650007047000000487047E417002070B50A78E2
:10466000012302F00F054E78AB401B4CD0F81C58CC
:10467000012E17D045EA0343C0F81C3800EB421066
:10468000D0F8002B12040BD4D0F8002B0B89097939
:10469000C3F30A031A4344EA81410A43C0F8002BDA
:1046A000002070BD9BB21D43C0F81C5800EB4210A7
:1046B000D0F800391B04F3D4D0F800390D890979FA
:1046C000C5F30A0589042B4341EA82510B43234376
:1046D000C0F80039E4E7000000800010D0F80019AD
:1046E0006FF30A01C0F80019D0F8041841F4807182
:1046F000C0F804180020704770B50D460446C2F398
:10470000072104981E4601291BD0E06840F04000B4
:10471000E060204600F032F8C6F307210029A16BC3
:1047200026D021F48031A163C5F30741012907D1C7
:10473000A16841F00601A160A16841F02001A160DB
:1047400070BDA16B21F48031A163E1680A4A114078
:10475000E160E16821F44011E160C0B2012803D1B9
:10476000E06840F48010E060204600F007F8DBE7E6
:1047700041F48031D7E70000BFFFBDFF08B500213D
:1047800000914FF07061009A521C00928A4210D83A
:104790000269002AF7DA0A220092521E0092FCD126
:1047A000026942F001020261009A521C00928A42A0
:1047B00001D9032008BD0269D207F5D1002008BD48
:1047C00030B54C780A78012300EB4212012C2CD032
:1047D000D2F8004B002C0BDAD2F8004B44F0006406
:1047E000C2F8004BD2F8004B44F08044C2F8004BB2
:1047F000D0F83C580C7804F00F0403FA04F425EACE
:104800000444C0F83C48D0F81C48097801F00F0176
:104810008B4024EA0341C0F81C18D2F8000B194958
:104820000840C2F8000B002030BDD2F80049002C2F
:104830000BDAD2F8004944F00064C2F80049D2F81B
:10484000004944F08044C2F80049D0F83C480D7853
:1048500005F00F0503FA05F5ADB2AC43C0F83C48CE
:10486000D0F81C48097801F00F018B4099B28C43B5
:10487000C0F81C48D2F8000903490840C2F80009F2
:10488000D1E700000078F3EF007833ECD0F8001E99
:1048900021F00301C0F8001ED0F8041821F0020135
:1048A000C0F8041800207047D0F8001E21F0030162
:1048B000C0F8001ED0F8041841F00201C0F8041836
:1048C000002070472DE9F04F00250E46044617469C
:1048D0002846294604EB8002C2F80411401C0F2828
:1048E000F8D3C3F307405FEA0009204616D0806B77
:1048F00020F40012A263A06B40F40022A2630846D9
:1049000088462146C4F8000EC7F30720012817D0B7
:104910000846D1F8001841F0030118E0D0F8040867
:1049200040F00202C4F80428A06B40F40012A26315
:10493000A06B20F40022A263A06B20F48022DDE7AC
:10494000300E0846D1F8001801D041F00101C0F83E
:104950000018102100F08BFA00B10125204600F06C
:104960006AFA00B101254046C4F81088C4F81488DA
:10497000C4F81C8800214FF0006B4FF0904E4FF6AA
:104980007F3AF2B215E000BF04EB4113D3F800C93F
:10499000BCF1000F06DA11B1C3F800E904E0C4F875
:1049A00000B901E0C3F80009C3F81009C3F808A969
:1049B000491C8A42E8D8002115E000BF04EB4113EE
:1049C000D3F800CBBCF1000F06DA11B1C3F800EB4D
:1049D00004E0C4F800BB01E0C3F8000BC3F8100BFF
:1049E000C3F808AB491C8A42E8D8D4F8101821F45F
:1049F0008072C4F81028A0616FF080406061C6F337
:104A0000074018B9A06940F01000A061A0690A49E8
:104A10000843A061C7F3074018B1A06940F008003F
:104A2000A061B9F1010F03D1A06904490843A06155
:104A30002846BDE8F08F000000383C8004000040AC
:104A4000816821F0010181600020704710B5036C7E
:104A5000134CA34203D9D0F8003B002B1EDB0023EC
:104A6000C0F8103BD0F8103B43F40023C0F8103BD3
:104A7000D0F8103B43F01803C0F8103BD0F8103BBF
:104A800043F0C043C0F8103B012907D1C0F8142BF4
:104A9000D0F8001B41F08021C0F8001B002010BDA1
:104AA0000A30544F4A780B78012A00EB43100BD0A0
:104AB000D0F8002B22F40012C0F8002B097903294A
:104AC00014D0022912D017E0D0F8002922F40012E5
:104AD000C0F800290979032901D002290CD1D0F8A6
:104AE000001941F08051C0F8001905E0D0F8001B12
:104AF00041F08051C0F8001B002070470A784B78C5
:104B0000D1B200EB4110012B12D0D0F8001B0029CC
:104B100006DB2AB1D0F8001B21F08041C0F8001B51
:104B2000D0F8001B41F40011C0F8001B00207047B2
:104B3000D0F80019002906DB2AB1D0F8001921F0BD
:104B40008041C0F80019D0F8001941F40011C0F8F4
:104B50000019EBE7F8B50C784F788B4DE3B26FF0A6
:104B6000604600EB4313012F29D0D3F8107B6FF37D
:104B70001207C3F8107BD3F8107B2F40C3F8107BCB
:104B8000002C7DD00D69002D7BD08C6825446D1ED6
:104B9000B5FBF4F5ADB26C430C62D3F8104B06EAEA
:104BA000C5452C43C3F8104BD3F8104B0D6AC5F321
:104BB00012052C43C3F8104B012A70D0CBE00F69CB
:104BC000EFB1D3F810796FF31207C3F81079D3F867
:104BD00010792F40C3F810790CB30F698D682F44FA
:104BE0007F1EB7FBF5F5D3F81079ADB206EAC546DE
:104BF0003743C3F810790E79012E1CD02AE0D3F880
:104C000010692E40C3F81069D3F8105945F40025F7
:104C1000C3F81059D3F810596FF3120520E00E694C
:104C20008D68AE4200D90D61D0F8105945F40026C8
:104C3000C0F810690EE0D3F8106926F0C046C3F83A
:104C40001069D3F810694FF0C04707EA45752E4345
:104C5000C3F81069D3F810590E69C6F3120635432C
:104C6000C3F81059012A1BD000EB4413D3F80049B4
:104C700044F00444C3F800490C79012C31D001E020
:104C800044E057E00A695AB3D0F83428097801F0B3
:104C90000F03012199400A43C0F8342871E056E01F
:104CA000CA691AB100EB4413C3F814290979012920
:104CB0000ED1D0F80818C90500EB4411D1F800292D
:104CC00002D442F0005201E042F08052C1F80029C3
:104CD00000EB4410D0F8001941F00441C0F800196D
:104CE0004FE0D0F80848E405D3F8004902D444F076
:104CF000005401E044F08054C3F8004900920A8A4D
:104D000093B20A78C96800F0DFF93AE00C690CB197
:104D10008C680C618C680C62D0F8105BC4F31204D0
:104D20002543C0F8105BD0F8104B44F40024C0F8C1
:104D3000104B41E7D3F8104B8D68C5F312052C4397
:104D4000C3F8104BD3F8104B44F4002432E7CA6880
:104D50000AB1C3F8142B097901290CD1D0F808083D
:104D6000C005D3F8000B02D440F0005001E040F041
:104D70008050C3F8000BD3F8000B40F00440C3F898
:104D8000000B0020F8BD0000FFFF07E038B500224F
:104D9000009213464D780A7842F2107400EB4212EA
:104DA000012D19D0D2F8005B002D3CDAD2F8005B5F
:104DB00045F00065C2F8005B0A7800EB4212D2F8B9
:104DC000005B45F08045C2F8005B009A521C0092DF
:104DD000A24221D9012326E0D2F80059002D22DA7F
:104DE000D2F8005945F00065C2F800590A7800EB86
:104DF0004212D2F8005945F08045C2F80059009A95
:104E0000521C0092A242E5D80A7800EB4212D2F876
:104E10000029002AF3DB06E00A7800EB4212D2F800
:104E2000002B002AD1DB184638BD816841F0010112
:104E300081600020704708B500214FF0706200913A
:104E4000009B5B1C009393420AD80369002BF7DA9E
:104E50000091102101610099491C0091914201D9F2
:104E6000032008BD0169C906F5D4002008BD18B5A6
:104E700000224FF070630092009C641C00949C42DE
:104E80000CD80469002CF7DA0092202242EA811142
:104E900001610099491C0091994201D9032018BD74
:104EA00001698906F5D4002018BDD0F8080810F073
:104EB000060004D0022803D0062801D00F20704736
:104EC00002207047406900F001007047D0F81818C0
:104ED000D0F81C08084080B27047D0F81818D0F8F5
:104EE0001C080840000C704710B5D0F81038D0F8F6
:104EF000342801F00F0400EB4110E24002F00102FF
:104F0000D0F8080943EAC212104010BD00EB41116D
:104F1000D1F8081BD0F8140808407047416980692F
:104F20000840704730B503460846940802F0030174
:104F3000002203F5805303E01D6840F8045B521C17
:104F4000A242F9D300290BD01C680022D50024FA14
:104F500005F3491E521C090400F8013B090CF5D168
:104F600030BD70B50446C068002520F0C040E06048
:104F7000012901D079B120E0E06840F00050E06004
:104F80000A20FCF7DDF960690A3510F0010F10D135
:104F9000C82DF5D30DE0E06840F08040E0600A20C5
:104FA000FCF7CEF960690A3510F0010F01D0C82D69
:104FB000F5D3C82D01D0002070BD012070BDD0F800
:104FC000002822F4FE62C0F80028D0F800284FF430
:104FD000FE6303EA01110A43C0F80028002070476D
:104FE000022A3ED1264A274B0A449A4201D20F2177
:104FF00038E0254A254B0A449A4201D20E2131E07D
:10500000234A244B0A449A4201D20D212AE0224A23
:10501000224B0A449A4201D20C2123E0204A214B20
:105020000A449A4201D20B211CE01F4A1F4B0A443A
:105030009A4201D20A2115E01D4A1E4B0A449A42A7
:105040000FD31D4A1D4B0A449A4201D2082109E0A0
:105050001B4A11441B4A914201D2072102E006215A
:1050600000E00921C26822F47052C260C2684FF4A5
:10507000705303EA81210A43C26000207047000098
:10508000405327FF00350C00401E1BFF40420F001D
:1050900000DC0BFF804F1200808CF9FE20D613003D
:1050A00060B6E5FE60E3160000D3CEFE40771B003D
:1050B000C05BB3FEC091210000CA91FE207538008C
:1050C000E05459FEE09C410010B5029C74B9DB1C11
:1050D0009C0800EB0230002300F5805004E000BF84
:1050E00051F8042B02605B1CA342F9D3002010BDD1
:1050F000FEE70907090E002804DB00F1E02080F834
:105100000014704700F00F0000F1E02080F8141D3B
:10511000704730380A2801D20120704700207047BC
:10512000FCF70CFBFEF798F8FDF77CFEFDF710FF8F
:10513000FDF7BAFEFDF7CEFEFDF7F0FE0B48FEF7D9
:10514000E7FBFBF75BFD48B10948002201780948FD
:105150008068C078FEF726F8FBF7ACFC00F01AF880
:10516000FDF73EFE00F028F8FEE7000008030020EF
:10517000080000201000002010B5EFF3058111B1E8
:105180006FF0050403E0002408B100F01DFE204686
:1051900010BD0000EFF3058010B16FF005007047FF
:1051A0000448016811B14FF0FF30704701210160E0
:1051B000002070470C01002010B5EFF3058010B1FE
:1051C0006FF0050010BD08480168012902D04FF0BA
:1051D000FF3010BD054A002182F8141D0221016034
:1051E00000F05AFE002010BD0C0100200BE000E092
:1051F0002DE9FF414FEA01034FF00005EFF3058170
:10520000039549BB40B38027182100244AB3166890
:1052100006B1344696691EB13146761E382E02D24A
:105220001679F60703D0002004B0BDE8F081566976
:1052300006B1B708D2F808C0BCF1000F0DD0D56890
:105240005C2D18D312693AB136B18DE806103A4692
:10525000214601F0BAF903900DE0D6685EB91269F3
:105260004AB903AACDE90012BAB2214601F080F989
:10527000012800D003950398D6E7000000B591B04F
:105280000B460246009106A101A8FBF7EFF882B297
:105290004FF0FF3301A90A48FDF71AFD11B000BD18
:1052A0005B25735D2056616C7565203D20256C750E
:1052B000202830782530386C58290D0A000000006D
:1052C000780200202DE9F041134C0F460546E668B0
:1052D0002068001D00F044FC681C07D137B121682C
:1052E000BDE8F0410D48091D00F08ABC2068354436
:1052F000B5424560216805D2A06BBDE8F041091DAB
:1053000000F066BC606B091D00F062FCA06A85427B
:1053100000D2A562BDE8F081BC000020D8230020A7
:105320002DE9F041054600F077FC2D4CA068401CAB
:10533000A06020682B4F10B1606930B32BE025606E
:10534000A068012827D1002606EB860007EB800025
:1053500000F030FC761C382EF6D3234800F02AFCEF
:105360002148143000F026FC1F48283000F022FCB1
:105370001D483C3000F01EFC1B48503000F01AFC69
:10538000194860631430A06305E02068E96AC06AC8
:10539000884200D82560606A401C60626864E86AE0
:1053A0002169884200D9206100EB800007EB800072
:1053B000291D00F025FC00F04FFC606900280CD08E
:1053C0002068E96AC06A884207D208494FF08050D5
:1053D0000860BFF34F8FBFF36F8FBDE8F08100000F
:1053E000BC000020281F00208823002004ED00E0DE
:1053F00038B500F011FC104C2068C8B90F4800F017
:10540000D9FB0E48143000F0D5FB0C48E060143096
:1054100020610A4B0020F03B009003F15002102164
:105420000A2000F047FE206010B105A100F096FCB4
:10543000BDE8384000F010BCF8000020DC2400205B
:10544000546D72510000000030B4026C0B46002A0B
:105450000BD0C1681144C1608468A14201D30168C6
:10546000C16030BC1846FBF793B930BC70472DE9DA
:10547000F041856B174604460026026C82B1C7B125
:10548000E068FBF785F9E168206C091AE1602268A1
:10549000914202D2A168081AE060022F16D017E0EC
:1054A0002068A8B9A06801F033F906460020A06082
:1054B0000EE06068FBF76CF9216C6068084460607E
:1054C000A168884204D32068606001E005B16D1EC8
:1054D0006D1CA5633046BDE8F08110B5044690F818
:1054E000590058B101280CD002280FD0502080F369
:1054F0001188BFF34F8FBFF36F8FFEE7206B00F073
:10550000BFFB2046BDE8104000F0BABB10BD000054
:1055100010484FF47051420706D0C01D0D4920F0CD
:105520000700411AC1F570510B4A00230144C2E93A
:1055300000030839183A21F0070111604B600B6035
:105540000B1AC0E9001393604FF0004053605061A4
:1055500070470000BC2B002028010020144E154C81
:10556000A6F29C474FF08058DFF84C9012E000BF45
:1055700000F052FBF068C568281D00F0F1FAA06841
:10558000401EA0606068401E606000F065FB284619
:10559000FFF7A3FF60680028EAD138680128F9D92D
:1055A000C9F80080BFF34F8FBFF36F8FF2E70000A1
:1055B000C4230020BC00002004ED00E070B51D46AF
:1055C000049C51B1C4F80020C4E90F010121204618
:1055D00000F0A4FD84F84C5070BD2460F4E7000096
:1055E0002DE9F05F8846DDE90B941546834691006E
:1055F0009A460A9EA522206BFBF70FF96FF0030174
:10560000206B01EB8501084420F00707780707D0DD
:10561000502080F31188BFF34F8FBFF36F8FFEE7E9
:105620000025B8F1000F0FD05FF00000221818F825
:10563000001082F8341018F8001011B1401C102826
:10564000F4D384F8435001E084F83450382E00D36A
:105650003726E662C4E91365201D00F0B6FA04F1AE
:10566000180000F0B2FA2461C6F138006462A0614B
:10567000656584F8585052465946384600F05AFA43
:105680002060B9F1000F01D0C9F80040BDE8F09FDB
:1056900030B5114900E011460A688242FBD34B68DD
:1056A0005C18844203D14068184448600846436847
:1056B0001C18944209D1084C183C2468A24209D015
:1056C00052681A4442600A6812680260814200D03F
:1056D000086030BD0460F9E72801002070B500249F
:1056E00041600B4D0061914206D8D11A8269914206
:1056F00006D2011D286907E09A4203D2994201D3DC
:10570000012403E0011DE86800F062FA204670BD44
:10571000F800002010B5044600F07EFAA06B28B116
:105720005FF0000400F098FA204610BD0124F9E76C
:1057300030B589B03C4D6EE00498002806DADDE90A
:105740000601059A90470498002864DB069C60696E
:1057500010B1201D00F004FA03A800F0D7F80246AB
:1057600004980A2857D2DFE800F00505052D334AD2
:1057700005052D3394F8280040F0010084F8280036
:105780000599A069059B01442046FFF7A7FF68B370
:10579000216A2046884794F8280040073BD500201E
:1057A00000900598A169002342181946204601F08F
:1057B000B9F8D8B9502080F31188BFF34F8FBFF3E9
:1057C0006F8FFEE714F8280F20F00100207022E010
:1057D00094F8280040F0010084F828000598A061A2
:1057E00028B1811813462046FFF778FF13E05020B8
:1057F00080F31188BFF34F8FBFF36F8FFEE794F8EC
:105800002800810703D4204600F03AFA03E020F094
:10581000010084F82800002204A9286800F0D2FDC5
:10582000002889D109B030BDF80000202DE9FC41E5
:105830000F46054600F074FB01A800F067F8044627
:10584000019818B100F0DCFFBDE8FC81254EAFB136
:1058500030690068D0B30027291B3A46306800F051
:1058600091FA00F0CDFF0028EED11F494FF0805093
:105870000860BFF34F8FBFF36F8FE5E7A542EBD80A
:1058800000F0BEFFF0682746C068C468201D00F025
:1058900067F994F82800410719D5A0692B464119EA
:1058A0003A462046FFF71AFFA8B1002003460146FA
:1058B00000902A46204601F035F860B9502080F368
:1058C0001188BFF34F8FBFF36F8FFEE707E020F023
:1058D000010084F82800216A20468847B4E70127A0
:1058E000BAE70000F800002004ED00E00648416B34
:1058F000096829B1416BC968C96849688162704704
:105900004FF0FF31FAE70000BC00002070B50546FB
:1059100000F094FE064E0446B068844203D200F0C4
:1059200009F8012000E0002028602046B46070BD26
:10593000F8000020F8B5194D20E0C068C46806687A
:10594000201D00F00DF9216A2046884794F82800B0
:10595000400713D5A0693044B04206D92461606085
:10596000211DE86800F034F908E0002003460146F4
:1059700000903246204600F0D5FF38B1E868016853
:105980000029DAD12969C5E90310F8BD502080F358
:105990001188BFF34F8FBFF36F8FFEE7F800002031
:1059A00008484068401C4FF0500080F3118804D034
:1059B000BFF34F8FBFF36F8FFEE7BFF34F8FBFF380
:1059C0006F8FFEE730010020074CE068016841B1AD
:1059D000C0680021D0F80000FFF728FFFFF7A8FEFD
:1059E000F3E701210020F7E7F80000202DE9F0415E
:1059F000044600F011F994F9455004F1240609E039
:105A0000606A48B1304600F0C3FE08B100F00AFAFF
:105A10006D1E6DB2002DF3DC4FF0FF3684F845604B
:105A200000F01AF900F0F8F894F9445004F1100766
:105A300009E0206948B1384600F0AAFE08B100F03C
:105A4000F1F96D1E6DB2002DF3DC84F84460BDE801
:105A5000F04100F001B900002DE9F04105460027B2
:105A600000F05EFA324E306808B9FFF751FD7069F8
:105A700005424ED1C5B3083568070ED005F00700C2
:105A8000C0F108000544680707D0502080F3118852
:105A9000BFF34F8FBFF36F8FFEE72DB37068854262
:105AA00037D82348183001460C6801E020460C46E0
:105AB0006168A94202D221680029F7D131688C427D
:105AC00027D007682168016060680837411B1029EA
:105AD0000FD96019420708D0502080F31188BFF316
